1Rudolf          Windler                195 Lillia Harbor                                           Port Estella        WV25296-333011/24/194708/07/2024241202000202024verl15@plc.net                                                                                      
1Dewey           Jacobson-Williamson    6114 Swaniawski Shoals                                      West Lollie         KY42739-950510/17/198902/18/2024213302000022024watsica.carmella@and.biz                                                                            
1Yoel           URenner                 3704 Brittni Cove Apt. 359                                  North Delmaton      AP96604     07/30/202107/21/2024222501000222024nelie50@gmail.com                                                                                   
1Travon         LBernhard            PhD871 Brenna Knolls Apt. 107                                  West Fidenciomouth  MA01437     06/13/194201/10/2024233301000022024myron.legros@hotmail.com                                                                            
1Brennan        EDeckow              MD 43732 O'Reilly Mountains Apt. 463                           West Jarodville     PA17926-869501/31/201701/03/2024244202000002024blehner@ltd.com                                                                                     
1Rakeem         QFunk                Sr.PO BOX 494                                                  Welchfurt           IN46630-733205/29/193806/08/2024200000000002024dabshire@gmail.com                                                                                  
1               SMcCullough          DDS1602 Artelia Stravenue Apt. 187                             Babetteburgh        NE68740-109206/12/193508/24/2024200000000022024NA@GOV.COM                                                                                          
1Larue           Runolfsdottir          40500 Estevan Walks                                         Port Jilesfort      NH03185     03/20/200808/28/2024231201002022024yazmin.miller@schumm.com                                                                            
1Lashawn         Stiedemann          DVM746 Stehr Islands Suite 443                                 East Ayleenmouth      88708     11/16/195407/30/2024221502000022024tbarton@hotmail.com                                                                                 
1Earlie         SRuecker             Jr.53423 Bosco Green                                           Shermanchester      NJ08622     02/07/194802/01/2024211502000002024jhauck@plc.com                                                                                      
1Burk           DRuecker                7746 Danyel Landing Suite 152                               Randstad            CA92278-349403/02/193002/02/2024223101002002024mattie27@gmail.com                                                                                  
1Vander         BBlock               DDS49463 Oberbrunner Junction                                  Zorashire           NJ70350-376911/12/196704/15/2024234202002202024leroy.franecki@ltd.biz                                                                              
1Levy           PMarks               MD 980 Drusilla Highway Suite 757                              North Dominique     MD21868-449905/07/199405/31/2024213102002202024kasey03@and.info                                                                                    
1Rayshawn       QOrtiz               Sr.71852 Fritsch Haven Suite 335                               Lake Rutheport      PA15251     01/21/198205/31/2024212101000002024dayami58@gmail.com                                                                                  
1Manning        NGerlach                9500 Kash Crossing Apt. 983                                 North Wanetaton     TX77976-871011/25/201608/17/2024221102002022024marlee27@hyatt.net                                                                                  
1Val            CFisher                 6275 Kaydence Burg                                          Kovacekport         OK73517     10/12/195802/08/2024233101000222024jenkins.dillan@doyle.com                                                                            
1Williard       QBailey              MD 30220 Tawana Mall Apt. 623                                  Lake Aprilberg      CA91574-271705/27/201503/11/2024222101000002024ritchie.deetta@hotmail.com                                                                          
1Wiliam         CSchuster               5078 Zboncak Inlet                                          Port Napoleon       DC20535     10/17/197304/08/2024200000000202024daulton.hoppe@yahoo.com                                                                             
1Jay            AHackett             Jr.1154 Vandervort Flat                                        West Philo          IL60717-833004/28/200901/15/2024222502000202024kozey.gorge@hotmail.com                                                                             
1Hassan          Bode                PhD863 Langosh Branch Suite 935                                Port Carsenport     KY41552     02/06/193503/11/2024232102000022024ahaag@hotmail.com                                                                                   
1Travon         WMcClure             DDS886 Jast Expressway Apt. 040                                East Zollieborough  NC27008-937707/20/197002/19/2024244201002222024karyme62@yahoo.com                                                                                  
1Shay           USchiller               057 Quitzon Parkways Suite 716                              Port Debroahchester WV26302-206402/17/199201/04/2024242101002222024tate.parisian@yahoo.com                                                                             
2Nanci          GCrona                  7296 Zebulon Well Suite 743                                 Peppertown          MO63333-222209/08/194003/25/2024224202002202024qcorwin@gmail.com                                                                                   
1Clabe           Kub                    9440 Laurel Spurs                                           Isrealfort          MA01440     10/03/201002/09/2024244501002022024shannon.jacobson@hane.net                                                                           
1               CHerzog                 61620 Batz Isle                                             Wisokytown          TX77757-625404/08/201601/15/2024211302000222024tawanda31@gleason.org                                                                               
2Penelope Ivie  JAdams                  603 Thompson Trail                                          South Rillamouth    WI53467-229103/22/197304/23/2024242302002022024bulah.upton@gmail.com                                                                               
1Dorris          O'Kon                  879 Daryl Canyon Suite 996                                  South Ellenview     PA15607-687607/15/194806/03/2024214301002222024connelly.guss@murphy.com                                                                            
1Clell          IMuller                 851 Hermann Brooks Suite 980                                Dallasland          NY12324-132902/07/199406/09/2024222302002022024aloys10@yahoo.com                                                                                   
1Dustin         WMraz                DDS6919 Odelia Camp Apt. 194                                   Coleborough         IL61797     07/21/199506/17/2024223201002002024blaine37@yahoo.com                                                                                  
1Willie          Cruickshank            4933 Cinda Forges Suite 089                                 Hattieborough       VT05687-180303/12/198702/04/2024233201000222024ryne12@haag.info                                                                                    
1Brenden        EMaggio                 63922 Streich Park                                          Abbottland          VT05726-881607/08/201604/18/2024200000000022024sbernier@yahoo.com                                                                                  
1Jarvis         UJaskolski           Jr.904 Nils Ranch                                              Lake Phebechester   GA39919-809301/20/198901/22/2024234201002022024nwolff@yahoo.com                                                                                    
1Jarrell        QHand                MD 1508 Kassulke Field Apt. 759                                Joettebury          OH45297-528801/11/194208/10/2024211202002022024chalmer34@yahoo.com                                                                                 
1Markel         NKshlerin            DDS35001 Yost Park                                             Gislasonberg        ND58485-998404/21/198102/29/2024214502000022024milo82@yahoo.com                                                                                    
1Rene           OLeuschke               506 Jaime Views Apt. 767                                    Lake Ilah           AR72537     02/24/194008/08/2024211201000202024rlangosh@yahoo.com                                                                                  
1Hubbard        GWisozk                 66349 Mitchell Haven Suite 789                              West Melissia       WA98173-192112/20/194507/13/2024233302002222024OBA@GMAIL.CM                                                                                        
1Taylor         HHeller                 058 Danica Oval Suite 955                                   South Courtney      NY14054-366008/25/200004/12/2024222202000222024daugherty.orvin@ltd.com                                                                             
1Chauncy         Murray                 691 Frami Island Apt. 019                                   Torrenceberg        WV25968-790202/07/201203/10/2024200000000022024gjohns@gmail.com                                                                                    
1Keven           Metz                   7856 Baumbach Hills                                         South Autumn        WV26441-551207/27/194108/20/2024232502002002024brandy10@gislason.net                                                                               
1Akeem          LWilderman              37440 Alyse Alley                                           South Elna          UT84176     04/17/197301/21/2024234301000022024koepp.alexina@von.net                                                                               
1Benedict       GJones                  7298 Berneice Route                                         Euniceport          VA22811-219605/26/198705/12/2024233101002222024lpfannerstill@abshire.com                                                                           
1Marcell        GO'Kon               PhD2409 Morissette Fork Apt. 010                               Port Mearlside      TX79623-590611/26/195509/05/2024242301002202024schimmel.leontine@quitzon.biz                                                                       
1Jule            Osinski                2237 Davis Fields Suite 210                                 Hackettton          WV25014-857105/04/199501/13/2024243201000202024montana90@bins.biz                                                                                  
1Okey           QLarson              PhD906 Belle Parks Apt. 546                                    Ryderstad           MN55456     01/27/195506/14/2024233101000202024weissnat.siobhan@yahoo.com                                                                          
1Broderick      LReinger                3155 Kling Point Suite 307                                  Lebsackmouth          51751     08/04/196201/12/2024241301000002024sylvan.schneider@yahoo.com                                                                          
1Dalton         RJaskolski           DDS9643 Hart Rest Apt. 874                                     Nealybury           KS66116-117907/28/199402/03/2024224302002002024hwintheiser@group.org                                                                               
1Gardner         S                   Sr.791 Robel Wall Apt. 745                                     Lake Arteliaside    AP96622     08/19/196603/01/2024200000000202024tstroman@plc.com                                                                                    
1Gregory         Emmerich            Jr.37710 Beahan Hill                                           McClurestad           00340-896208/27/196503/28/2024232101002222024green.odalis@gmail.com                                                                              
1Zenas          DCarroll             MD 513 Stoltenberg Turnpike                                    DuBuquetown         VA23001     05/16/193901/18/2024244101002222024jacobson.sid@plc.com                                                                                
1Julius         RCorwin              MD 82779 Dach Mills                                            Lemshire            IL60997     03/02/196608/01/2024214102000222024hauck.gabrielle@schamberger.biz                                                                     
1Lula           VKuhlman             MD 6966 Horace Cliff Apt. 890                                  Elianview           NC28178     09/07/196908/27/2024231302002022024bblanda@yahoo.com                                                                                   
1Dimitri        HRippin                 99372 Tyrek Corners Suite 519                               Marshallborough     ND99994-688811/22/194707/25/2024222501002202024badams@yahoo.com                                                                                    
2Renae          ZLindgren               486 Heathcote Shoals                                        New Beaulahstad       57916     09/10/200305/03/2024232501002022024rogahn.kandice@yahoo.com                                                                            
1Ruffin         MHuel                DDS836 Corry Mountains Apt. 931                                Lake Kylah          MA98100     07/14/200208/31/2024241202002222024cecilia10@plc.com                                                                                   
1Casey          NJohnson             MD 7930 Miller Mountains Suite 852                             Grimesmouth         TX79153     04/22/197807/01/2024223501000002024lena.carter@hotmail.com                                                                             
1Lawyer         ZMayer                  6478 Volkman Mills Suite 692                                Akeelahshire        GA31569     11/09/198106/17/2024200000000022024welch.johan@hotmail.com                                                                             
1Hamilton-DevaugAStoltenberg         Sr.52836 Stacy Crossroad Apt. 186                              South Beatrixstad   OR97015-435612/03/200504/22/2024214101002222024uschmitt@dicki.net                                                                                  
1Christophe     RWalsh                  10116 Mann Forest Apt. 734                                  Port Amir           TX79730     05/16/195406/11/2024221201000022024geneva09@yahoo.com                                                                                  
1Arland         XLynch Schroeder     DDS756 Graves Estate                                           Parkerbury          PA18821-538308/06/202402/04/2024212102000222024nhowell@gmail.com                                                                                   
2Frankie         Tillman                05901 Abernathy Knolls Apt. 444                             Murphytown          CO80586-688012/18/199309/04/2024200000000022024sage.mante@schoen.org                                                                               
1Pleasant       HDach                DDS6457 Claribel Plain Apt. 667                                Tracieton           GA31887-866407/02/198504/28/2024200000002002024hayden39@muller.info                                                                                
1Tristen-Dayne  HKirlin              Jr.992 Koss Track Apt. 600                                     Vessieton           NY11399-182407/01/197508/22/2024241202002002024hauck.milas@gmail.com                                                                               
1Alexander      ESkiles              DDS59982 Frami Land                                            West Rachael        KS67351     10/13/197806/26/2024232201000202024kaylee22@yahoo.com                                                                                  
1Albertus       QDooley              PhD2186 Turner Summit                                          Herminiaton         VA23178     12/14/196401/19/2024243101002002024garnett61@yahoo.com                                                                                 
2Rosabelle      JMuller                 78931 Gilbert Plain                                         Rockyhaven          MA02132     03/17/202108/20/2024100000002002024adelle33@gmail.com                                                                                  
1M Z             Hagenes                65493 Daugherty Underpass                                   West Deebury        TX76612     04/07/197507/12/2024221501002002024shyla.hoppe@hessel.com                                                                              
1Marley         SMosciski            Sr.1464 Hadley Loop                                            North Nellostad     RI02960     08/14/202301/14/2024234301000002024williamson.lorelei@gmail.com                                                                        
1Jordyn         SDaniel              DDS4591 Schowalter Passage Suite 375                           Walkerfort          WV26590     03/03/199005/10/2024231301000002024jakubowski.bob@hotmail.com                                                                          
1Erland          Goyette             Jr.340 Fay Squares Apt. 751                                    Zboncakbury         CA91753     08/29/198305/03/2024221102002022024ajacobs@yahoo.com                                                                                   
1Deshaun         Brekke                 235 Kerwin Junction Apt. 300                                Kundeton            TX75619-980301/01/202404/16/2024221301002222024noreen.wisoky@little.com                                                                            
1Eloy           SGibson              Jr.906 Kayson Cove Apt. 180                                    New Jerrilyn        OR97837-049210/05/193906/02/2024243501000202024taj50@llc.com                                                                                       
1Bret           DLuettgen            Jr.220 Corwin Unions                                           Hirtheborough       MO64042-298808/06/198702/23/2024243302002222024wing.dare@hotmail.com                                                                               
1Kalen          FO'Conner            DVM470 Caro Cape                                               Weissnatborough     IA51689-228203/29/197101/10/2024232302000002024alice.nolan@gutmann.com                                                                             
1Mateo          VDooley              PhD8779 Kiera View Apt. 757                                    Hildegardview       MI48037     04/22/202407/19/2024223101002022024berge.joycelyn@hotmail.com                                                                          
2Julie          ESmitham                50630 Olson Well                                            South Holliton      AZ85244     04/27/198409/04/2024221202000022024ebert.byrd@boehm.com                                                                                
1Octave         LLynch                  10249 Feest Walk Apt. 676                                   New Freeman         ME04297-787509/06/194208/07/2024221202002202024gottlieb.anita@hotmail.com                                                                          
1Elon           OKoelpin             MD 4621 Blanda Oval                                            South Breanaville   OR04212     09/28/200202/11/2024241201002022024liza.schiller@llc.com                                                                               
1Omar           OHeathcote           MD 223 Davis Field Apt. 787                                    Danielshire         PA18092-998001/24/193503/30/2024213202000022024harlan.white@jerde.net                                                                              
1Tavian          Hartmann               842 Bauch Freeway Suite 666                                 Port Elzaview       WY31179-686711/06/196107/17/2024242302002222024strosin.billie@gmail.com                                                                            
1Hermon          Lowe                   8254 Howe Station                                           Masakoview          NY10515-362303/09/196707/22/2024200000000022024OBA@GMAIL.CM                                                                                        
1Oren           LHoeger              DDS494 Lakisha Ford Suite 366                                  New Tina            PR00605-446901/18/201801/21/2024243201000002024gaston99@hotmail.com                                                                                
1Pinkney        LWelch               DVM1682 Ahmad Court                                            Dozierside          MA01790-265611/20/198701/15/2024200000000002024anthoney92@inc.com                                                                                  
1Earlie          Kohler              Jr.256 Barbie Estate Apt. 001                                  South Brain         CA94223     03/23/199009/04/2024211102000202024mcdermott.jakobe@gmail.com                                                                          
1Kadyn           Spencer                50407 McLaughlin Fort                                       East Marita         NM87860     05/25/200705/29/2024233302000202024romaguera.katia@marquardt.org                                                                       
1Jadon           Medhurst               37861 Sydnie Island Apt. 234                                Lake Maybelleport   MO64080     03/19/195204/20/2024233501000022024rowe.channie@yahoo.com                                                                              
1Carter         XMurazik             Sr.05476 Greenfelder Forest Suite 767                          Kuvalisview         TX79153-856106/11/193601/23/2024244502000002024davis.robbie@plc.com                                                                                
1Antione        SWest                Jr.06477 Ace Isle                                              Port Fredy            51828     01/29/195506/02/2024222502000222024exie96@yahoo.com                                                                                    
2M              JEmmerich               3052 Goodwin Spring Suite 094                               New Tiannamouth     FL32249-902004/29/197308/12/2024200000000002024stark.willaim@plc.com                                                                               
1Linden          Kuhlman                14838 Kyara Ramp Suite 757                                  Destineyborough     CO80999     07/08/198808/20/2024224502000002024tabitha.schoen@huels.com                                                                            
1Kenji          RSporer                 3679 Maximo Alley Suite 488                                 North Esker         TX76705     03/01/201802/03/2024214501000222024ila86@yahoo.com                                                                                     
1Eric            Bahringer              4788 Lavonda Divide                                         Port Lashawnburgh   NC27119-808202/28/197006/28/2024241102002222024simon19@hotmail.com                                                                                 
1Algie           Klein               PhD8562 Charlize Vista Apt. 162                                Welchport           ND01507     12/31/200106/23/2024232301000222024judie.pfannerstill@hotmail.com                                                                      
1Oscar          FKunde               DDSPO BOX 494                                                  Corkeryville        WI54666-789003/10/196005/20/2024221502000002024nico.thompson@lockman.com                                                                           
1Ricardo         Stokes              PhD55690 Kem Squares Suite 702                                 West Essaport       LA63770-024301/17/199605/25/2024243301002222024trent.dare@yahoo.com                                                                                
1Eduardo         Abernathy           DVM29307 Larkin Motorway                                       Yundtchester        IL61508-808505/28/194005/19/2024223301002002024rolfson.jones@gmail.com                                                                             
1Jonnie          White               Jr.11671 Lotta Crossroad Suite 563                             Kuhnberg              56821-930508/03/194605/19/2024241101002202024powlowski.harlon@gmail.com                                                                          
1Reno           RRunolfsdottir          8217 Lueilwitz River                                        New Peyton          CA92824     06/23/198804/28/2024224502000222024rosemary16@kemmer.com                                                                               
1Alonso          Deckow                 255 Bayer Gardens Apt. 868                                  Lake Lorri          MD50238     09/09/193202/17/2024243202000222024eprice@durgan.com                                                                                   
1Colon          RKiehn               Jr.1096 Chauncey Flat Apt. 524                                 Dominicshire        MO65002-284008/23/198102/22/2024213501002002024hjakubowski@gmail.com                                                                               
1Nelson Brien   AHodkiewicz             18426 Eugenio Keys Apt. 371                                 Mayerchester          34339-244611/01/195107/04/2024231502000022024kreiger.kameron@gmail.com                                                                           
1Deandre        BHarris              DVM90428 Keebler Freeway Apt. 679                              New Leandra         IA52466-202903/10/194908/14/2024214102002022024otowne@hotmail.com                                                                                  
1Elvis          XDibbert                7331 White Cove                                             East Duwaynechester NM87125-941704/24/196707/11/2024242201000222024gretta.konopelski@yahoo.com                                                                         
1Elsworth        O'Keefe             DDS8355 Schroeder Ridges                                       Port Ariellaville   OH45531-537502/15/194107/27/2024231501000222024kohler.johannah@murphy.com                                                                          
1Blaine         FGerlach                53202 Kshlerin Courts                                       New Janeland        FL33559     03/11/201507/10/2024200000000022024aurore.runte@corkery.com                                                                            
1Lige           NO'Hara              MD 16718 Arlena Lights                                         East Hobart         WV25913-742311/27/194501/21/2024233102000202024lionel.price@kris.org                                                                               
2Darcy          MHarris                 159 Floyd Forge                                             New Genieton        MN26669     09/20/202306/17/2024212302002022024zboncak.elmyra@gmail.com                                                                            
1Shayne          Hansen              DDS536 Thurman Falls                                           West Woodville      PA16043-385102/09/198306/26/2024212502000202024effertz.keshawn@hotmail.com                                                                         
1Emory          AKeebler             Sr.06081 Marius Falls Suite 399                                Cinthiaport         PA18678     05/28/200201/10/2024224101000222024darren.sporer@hotmail.com                                                                           
1Brandyn        KCollier             DVM5308 Zemlak Center                                          South Butchberg     KY42704-404409/07/197005/15/2024200000000002024cristal02@yahoo.com                                                                                 
1Daxton          Hauck               Jr.8764 Heller Trace Apt. 892                                  West Kiersten       ID83529     01/17/198708/15/2024223102002022024dona.lowe@denesik.net                                                                               
1Darien Marshal IHammes                 74112 Colby Fork                                            VonRuedenfort         42879-857305/28/197007/12/2024222301002222024shaneka.lind@hotmail.com                                                                            
1Weldon         DConnelly            Sr.7037 Payton Crossroad Apt. 059                              Lake Lowell         ME04426     07/03/194402/07/2024200000000022024kelsie.reichert@yahoo.com                                                                           
1Maxie          VGerhold                801 Zieme Valley                                            West Lemmieton      SD58189     11/28/200102/28/2024223101002222024wilbur88@sawayn.com                                                                                 
1Roscoe         B                       09319 Schulist Dam                                          South Laytonstad    ME04498     12/30/195102/27/2024200000002222024arlin.gulgowski@kuphal.com                                                                          
1Shon           YKub                    46100 Clarine Viaduct Apt. 278                              Port Dominicborough   70287-633506/08/193708/11/2024242102002022024bhagenes@wisozk.com                                                                                 
1Yair           CWolff               DDS9029 Gutmann Parkway Apt. 930                               Port Guidoburgh     CO80718-218104/12/199706/15/2024223301002222024elizah08@hotmail.com                                                                                
1Dustan         CBecker                 32201 Lanie Garden Suite 168                                West Diann          WV26045     09/14/201908/04/2024214101000002024kschroeder@spencer.com                                                                              
1Sergio         OSchuster               202 Watson Meadows Apt. 048                                 Cheyennetown        MO63100-267509/12/200408/11/2024224301000202024bode.lavonne@inc.org                                                                                
1Lanny          UVolkman             Jr.7128 Marrion Extension                                      North Rogerston     IL60807     04/13/202109/01/2024224102002202024tracie77@yahoo.com                                                                                  
1Haskell        CBaumbach            PhD71284 Astrid Corner Apt. 053                                West Darcy          OH43047-337710/17/194204/17/2024213501002222024casper.jamey@gmail.com                                                                              
1Ewald           Bahringer              0160 Rowan Hill                                             Lake Emeryview      AR72509     07/30/198509/01/2024200000000002024qrau@ltd.biz                                                                                        
1Tony            Lakin               DVM0099 Jaskolski Forks Apt. 626                               Rutherfordside      KS67550-084906/13/196106/03/2024231102000022024lesch.bradford@gaylord.info                                                                         
1Jaydan         PTromp                  347 Gusikowski Estates Apt. 884                             West Berlin         VA31401     03/09/200204/01/2024222202002202024morissette.arvo@gmail.com                                                                           
1Dejon           Swift               PhD444 Koss Fork                                               Delphiafort         WA98646-154007/13/197907/08/2024244302002222024kryan@carter.com                                                                                    
1Ari            ZMetz                DDS571 Bridget Light Apt. 228                                  Oswaldoborough      AR72951     12/26/197701/11/2024200000000002024jacobson.jettie@llc.com                                                                             
1Nehemiah       XJacobi                 728 Olson Via Apt. 139                                      Okunevaville        KY41723     03/29/201802/04/2024200000000022024laurel.zemlak@yahoo.com                                                                             
1Bud            VWillms                 36820 Stark Lights Suite 108                                West Etha           NY11086     08/20/196101/06/2024214301002002024pricilla.kihn@yahoo.com                                                                             
1Sergio         ZTorphy                 5961 Cassondra Garden                                       West Arnoldchester  TN54239-829404/30/200102/06/2024223301002022024ruecker.bettina@yahoo.com                                                                           
1Jaheim         SRyan                MD 4614 Truman Street Apt. 724                                 Shirliehaven        AZ85651-573710/02/196803/03/2024244502000202024elder.langworth@kuvalis.com                                                                         
1Carnell        SLehner              Jr.764 Lueilwitz Viaduct                                       Alviatown           MD21631-761511/18/199304/10/2024234101002022024hpollich@cassin.com                                                                                 
1Iver           GO'Reilly               9465 Jast Lodge                                             Howellshire         OH81883-967503/03/194801/09/2024223301000002024fritz01@grant.net                                                                                   
1Dorsey          McClure                88224 Smitham Branch                                        Hansenview          MA01128-162407/14/195903/03/2024233101002202024johnson.teela@gerhold.info                                                                          
1Colbert        PBerge-Tremblay      PhD3427 Georgette Trail Apt. 138                               Port Ozzie          IN46035     04/09/202204/24/2024200000000002024hreichel@hotmail.com                                                                                
1Donaciano      HDeckow                 5248 Chasity Throughway                                     West Cassondrastad  AR72441     09/05/201706/30/2024212301002222024lavon61@yahoo.com                                                                                   
2Marylyn        YGutkowski              27427 Krajcik Pine                                          Chaunceybury        CT06790-548010/14/194003/15/2024200000000202024crice@and.com                                                                                       
1Cortney        NRath                DDS412 Kolton Road                                             Lake Kaylistad      MN56702     10/01/197401/25/2024241201002022024bell15@hotmail.com                                                                                  
2Augusta         Hintz                  398 Kirlin Path Apt. 389                                    Hermanview          KY41593-225205/18/196205/05/2024234501002022024beverly30@yahoo.com                                                                                 
1Nicklaus       HMorissette          PhD448 Yvette Parks Suite 628                                  Killianside         AR72821-488801/30/195104/19/2024232101000022024hdickens@hotmail.com                                                                                
1Gustavo        NPurdy               PhD09189 Stanton Burg                                          Dachberg            KY40462-714710/12/201705/07/2024244301000222024bogisich.mavis@yahoo.com                                                                            
1Soloman         Parisian               47740 Casper Crest                                          Faytown               92936-097904/29/199705/31/2024232101000202024letta.bartell@gmail.com                                                                             
1Emilio         WStiedemann             125 Verle Hill Apt. 749                                     Wymanburgh          NM01682     09/22/201805/02/2024223301002022024hane.beryl@ltd.com                                                                                  
1Aron           YLindgren               093 Oberbrunner Road Apt. 600                               Lake Ruthie         WI53849-063007/17/194908/13/2024243502002222024fnader@yahoo.com                                                                                    
1Evertt         TPfannerstill           0741 Borer Common                                           Glenwoodshire       NJ07476-119110/27/194905/13/2024244501000022024sloane.vonrueden@yahoo.com                                                                          
1Edd            VHerzog                 1925 Salena Forge                                           Treutelport           41996     05/17/193401/24/2024222501000202024mmonahan@gmail.com                                                                                  
1Lupe           SHayes                  8931 Elodie Land                                            South Mercedes      NY14016     09/16/201903/05/2024214502002022024dabshire@plc.net                                                                                    
 Chante          Cormier                47474 Rippin Divide                                         Lake Aristad        WI53744     08/05/193307/01/2024222502002022024beier.tammi@hotmail.com                                                                             
1Luka           EGrimes              DVM275 Deacon Flat                                             Ednaland            DC20012-473507/17/194403/09/2024222302000022024donald.larson@hotmail.com                                                                           
1Virgel   D .   DBruen                  379 Daugherty Burgs                                         Boyleville          ID83609     01/28/199608/31/2024233501000222024jayvion18@gmail.com                                                                                 
1Ellison        OCollier                8228 Lemmie Passage                                         Allineside          WY82638     02/29/200001/22/2024244302002002024bode.josefita@cassin.com                                                                            
1Dorris         RHuels                  93130 Hyatt Bypass                                          Lake Brien          OH45286-874805/16/193803/10/2024213202002022024marion.bergnaum@schowalter.com                                                                      
2Latasha        WPredovic               91119 Darnell Light                                         Port Maymeshire     CO80914-725405/31/195909/01/2024214301000202024georgeann.vandervort@kemmer.info                                                                    
1Davey           Hermann                6500 Hettinger Court                                        South Burrel        NC28869     12/15/195505/22/2024233101000022024devin76@gmail.com                                                                                   
2Lauren         UMayer                  30572 Lurana Creek                                          New Euramouth       OK74508-585207/06/199401/16/2024222201002222024izaiah.gutkowski@yahoo.com                                                                          
1Roswell        XRath Gulgowski         375 O'Reilly Forge                                          New Donnie          LA70487     10/03/197806/15/2024231301002202024ehahn@hotmail.com                                                                                   
1Erasmus         Koss                   473 Ever Glen                                               East Jerilyn        TN38500     09/15/199908/27/2024231101002222024cmonahan@legros.info                                                                                
2Jayme           Block                  023 Upton Green Apt. 167                                    Lake Festusstad     KS91971-257106/30/199401/31/2024242302000202024price.vela@and.com                                                                                  
1Fitzhugh       ZRodriguez           DDS3626 Alison Way Apt. 069                                    Devinborough        HI96749     07/17/198706/19/2024222202002202024del31@daniel.com                                                                                    
1Tripp          BDooley              DVM94248 Emery Fords Apt. 145                                  Creteshire          KS66442-983711/06/198408/18/2024243102002222024harlan.boyle@hotmail.com                                                                            
1Adriel         XHoppe               DDS90640 Kylie River Suite 135                                 North Donavanfurt   MO65296-068802/22/194502/14/2024222101002222024dennis79@rowe.net                                                                                   
2Arlyne         UHoeger                 8872 Jeramy Lock                                            New Esequiel        LA70817-993411/10/193902/17/2024232102002002024rigoberto74@yahoo.com                                                                               
1Aaron          XHaley               Jr.496 Theodora Grove                                          McDermottshire      KY41295-560502/04/202206/25/2024212102000022024xbecker@yahoo.com                                                                                   
1Kenny           Wisoky              MD 0190 Ana Flats                                              Lake Onnie          GA31403     07/08/199602/21/2024214202000022024krajcik.litha@ratke.com                                                                             
1Kendal         VFrami               Sr.0758 Ethyle Burg Apt. 282                                   Lake Monicaburgh    NY12648     07/16/194106/07/2024200000000002024giles.fisher@yahoo.com                                                                              
1Darell          Dach                Jr.77818 Swaniawski Courts                                     Port Benard         MI04173-657311/24/199803/29/2024241101002002024mayer.loni@purdy.com                                                                                
2Shalon         JBernhard               5817 Oberbrunner Path                                       Port Elmermouth     MA02033     05/11/199608/24/2024133201000002024bsmith@hotmail.com                                                                                  
1Robt           HBatz                   71849 Lilla Falls                                           South Kylieport     NC27522     12/01/196305/23/2024224202002002024hirthe.jeromy@o'kon.org                                                                             
2Peggy          MCollier                531 Reilly Tunnel                                           West Lenord         ID83348-391610/24/196606/28/2024243301000022024tonya00@llc.info                                                                                    
1Jon            JJones               PhD4032 Trista Alley                                           Wizaburgh           KY40692-381404/20/197902/17/2024200000000222024kaliyah.sporer@hagenes.biz                                                                          
1Duff           RWisozk              PhD921 King Inlet Apt. 742                                     Osinskifurt         PA19257     01/12/196504/09/2024212301002222024orolfson@miller.com                                                                                 
1Isreal         SCummerata           PhD109 Kasandra Mills Apt. 120                                 Teddiehaven         NM87728     10/16/197107/09/2024234201000002024veta43@gmail.com                                                                                    
1Lindsay        AGlover              Sr.4865 Isabela Knoll                                          Luanahaven          MD21100     10/05/202201/17/2024221201000222024bradtke.alene@hotmail.com                                                                           
 Winston         Keebler             DVM7659 Rice Knolls                                            New Illa            KY40593-760502/23/200103/11/2024241502000022024keena.hoppe@gmail.com                                                                               
1               HBins                   1752 Barton Spring Apt. 461                                 New Haley             34588     01/19/200506/27/2024234502002002024jacqueline.jerde@yahoo.com                                                                          
1Freddie        VKeeling             DVM656 Weimann Ways                                            Lake Shoji          TX76851     07/12/196305/25/2024232102002222024aja46@yahoo.com                                                                                     
1Angus           Roob                   86858 Justin Harbor                                         Alexandrtown        NC27403     04/11/195605/29/2024121302002222024oo'reilly@yahoo.com                                                                                 
1Tracy          MSchoen              PhD586 Franklin Garden                                         West Jenningsside   OH43976     05/30/201108/28/2024231101002202024nevaeh74@gmail.com                                                                                  
1Blair          TSchneider           DVM532 Cummerata Manor Apt. 220                                Girthaside          FL33463-352002/04/198608/18/2024200000000202024schaden.dimitri@gmail.com                                                                           
1Nolen          QAbbott                 1073 Ilona Fields Suite 701                                 Delisatown          AL35215-094504/06/196405/17/2024212101002002024euphemia38@kuvalis.com                                                                              
1Tristen        PTillman             Jr.9767 Homenick Point                                         Gordonhaven         NY10189     07/04/195404/25/2024200000002002024mertz.durell@beahan.com                                                                             
1Kolby          XSmith               Jr.766 Keebler Stravenue Apt. 088                              New Isam            TX78647     06/12/199902/15/2024213301000222024dubuque.carmel@and.com                                                                              
1Jayme           Moore                  1067 Beier Estate Suite 782                                 Lake Needham        PA17086-554009/02/200406/25/2024212501000222024lowe.mace@yahoo.com                                                                                 
1Oliver          Doyle                  243 Dickens Points Apt. 838                                 Agustusview         MA01095-807906/23/193603/29/2024232302000222024stephany99@gmail.com                                                                                
1Calvin         JWitting                313 Lula Radial                                             New Talia           AK99932     07/15/194806/27/2024231101000022024cheryle.pouros@gulgowski.com                                                                        
1Elden          XBuckridge              696 Kris Tunnel                                             West Makai          CA95222     08/03/193801/22/2024213101000022024gharris@cartwright.com                                                                              
1Ethan           O'Hara                 343 Rayford Falls                                           Erikaside           VA20175     06/28/198705/12/2024243101002222024caleigh.murray@gmail.com                                                                            
1Keifer         RKub                 DDS10543 Schoen Park Suite 644                                 South Afton         VA22499-135306/22/193406/06/2024232201000002024gulgowski.roscoe@hotmail.com                                                                        
1Triston        VGutkowski Barton    Sr.083 Mona Pines                                              Kyrieville          CA93760-336407/17/195202/25/2024233202002202024hshanahan@lockman.com                                                                               
1Cletus         MDicki               DVM5171 Langworth Expressway                                   Port Gaetano        MN55512     04/24/196408/16/2024214202002002024jenelle.hills@wuckert.com                                                                           
1Darold         FRitchie             MD 1012 Victor Ranch                                           Elmerport           MO65845-829012/22/196302/29/2024212101002222024eullrich@hotmail.com                                                                                
1Erby            Funk                   1117 Susann Lodge Apt. 706                                  New Arthor          VA24110     06/28/196603/16/2024232302000022024ystehr@sporer.com                                                                                   
1J               Schimmel               5298 Murazik Squares                                        Doylefort           OH43033     12/31/201001/20/2024234302002002024lang.halle@gmail.com                                                                                
2Daisie         CDurgan                 00749 Lynn Lake                                             Odieton             KY41754     08/23/195501/12/2024242101002022024melany73@gmail.com                                                                                  
2Ayla           GRuecker                1992 Stiedemann Roads Apt. 756                              East Branchton      FL33468-287306/07/199404/26/2024211502002222024phoenix15@gmail.com                                                                                 
2Annabelle      CBradtke                135 Luverne Shoal Apt. 450                                  Lakinhaven          MA01616-562207/23/194306/24/2024223301002222024lesley55@mills.com                                                                                  
1Wilburn Bethel PBlick               PhD42077 Rippin Drive Apt. 234                                 West Valerie        VA60314     08/07/196806/01/2024241301000202024egbert58@anderson.com                                                                               
1Tahj            Johnston            DVM20057 Conroy Creek                                          East Jovan          WV24917-706407/17/199806/19/2024212502000222024lueilwitz.london@rice.info                                                                          
1Press          TSmith                  1920 Morissette Valley                                      Port Dannielle      AR72505-037708/15/193503/31/2024223201000002024denisse52@inc.biz                                                                                   
1Demond          Mohr.               Jr.8310 Gurney Ridges Suite 338                                Romaguerahaven      TN37422-830104/20/201504/06/2024244501002002024marcello98@gmail.com                                                                                
1Teddie          Bosco               DVM58962 Oberbrunner Park                                      North Fidenciostad  TX75329-477012/23/197104/08/2024222301000222024obatz@yahoo.com                                                                                     
1Norwood         Stehr                  1316 Fahey Groves Suite 857                                 Colebury            UT42671     09/29/197505/12/2024213502002002024salvador23@sawayn.biz                                                                               
1Gage           GBradtke                804 Maudie Cape Apt. 379                                    Murphychester       CA94605-422303/03/199404/28/2024211101000002024adyson.o'conner@kuhlman.net                                                                         
1Westin         AE                   MD 100 Becker Extensions                                       Luisaport           GA39828     09/01/197501/21/2024222202002202024dhagenes@quigley.com                                                                                
1Aydan          FHuels               DDS12802 Jakubowski Passage Suite 476                          South Justynburgh   NY12908     07/21/198806/21/2024242501002202024dawna51@ltd.net                                                                                     
2Shari          EAufderhar              92837 Vandervort Land Suite 431                             Shieldsmouth        MI48320     06/08/201002/09/2024232502000202024umonahan@hotmail.com                                                                                
1Nikolas        QO'Kon                  306 Satterfield Manors                                      Cassinport          OR97918     04/07/199408/14/2024241202002222024ifriesen@reinger.com                                                                                
1Obie           FConsidine              5636 Arnetta Valleys Apt. 724                               Riceburgh           AZ90868     08/17/193503/07/2024242501002202024johns.rich@ltd.com                                                                                  
1Riley           Simonis             Sr.338 Thedore Oval                                            Gravesberg          NH03261-521506/24/200206/01/2024211201002022024domenic.schulist@schinner.com                                                                       
1Perley          Kessler                5627 Aufderhar Forges Apt. 638                              New Jethro          DC20085     07/12/195508/23/2024241302000222024qkub@gmail.com                                                                                      
1Denny          VJacobson               479 Dania Shoals                                            West Roxann         WY82899     07/10/197409/06/2024241101000222024ysenger@yahoo.com                                                                                   
1Hoy             Ledner              Sr.647 Goodwin Knolls Suite 255                                Port Caroline       MO65623-394807/11/200007/04/2024232101000222024elroy.auer@hotmail.com                                                                              
1Norbert        TFlatley             Jr.5653 Gibson Forks Apt. 173                                  Beerside            AL36394-785109/09/199608/20/2024234201002022024o'connell.keyla@hotmail.com                                                                         
1Harland        KCrist                  1013 Hickle Gardens                                         New Romie           CO80152-255104/30/198508/22/2024234102002022024imelda90@gmail.com                                                                                  
1Kiel            Botsford            DVM820 Theodosia River Suite 117                               North Salmaborough  MN55003     01/19/193105/12/2024244301002022024blemke@gmail.com                                                                                    
1King           VBorer               Jr.74379 Nicolas Plaza                                         Braedenton          DC20454     11/29/198906/23/2024223201000002024byrd16@hotmail.com                                                                                  
1Cosmo           Stiedemann             9635 Naoma Ramp Suite 693                                   Lefflerburgh          90924     05/09/196405/09/2024233301002022024walsh.lala@gmail.com                                                                                
1Nick            Kunde               DVM325 Herzog Cliff                                            Lake Daxtonton      MO65276-771711/19/198105/22/2024242502002022024fahey.clevie@hotmail.com                                                                            
1Olen           BNicolas             PhD95417 Bogisich Shoals                                       Collinshaven        NJ08580-482311/19/198301/17/2024223101002202024ocarroll@gmail.com                                                                                  
1Jarod Elliott   Orn                 Jr.3357 Matie Mountains Apt. 131                               Lake Coryhaven      NY11317-195006/26/199307/07/2024241502000022024wschulist@halvorson.net                                                                             
1Rolando        DSmitham.               86233 Wehner Islands                                        Kleinhaven          CO80692     03/20/198607/01/2024214502000202024pagac.kathryn@yahoo.com                                                                             
 Justin         RKautzer             MD 582 Herman Mall                                             New Karie             74202     07/27/201204/02/2024231102002022024mac.gibson@gmail.com                                                                                
1Tate            Carroll                05037 Kuphal Haven Suite 457                                Rodburgh            OH45127-106908/02/199604/24/2024233101000222024vivien12@hotmail.com                                                                                
1Lark           ZRice                Sr.58163 McClure Flats Apt. 132                                Strosinland         TX77666-509808/02/194007/23/2024213101000202024hildur.kub@wolf.com                                                                                 
1Roma           ZPfeffer             DVM405 Turcotte Corners                                        East Leannfurt      MI49271     11/01/200006/17/2024223202000202024bode.alan@mertz.com                                                                                 
1Joy             Kohler                 9134 Rebeca Circles                                         New Selma           IN47205-164609/27/202308/27/2024244501000222024dock00@ward.info                                                                                    
1Linwood        MMurray              MD 099 Sullivan Haven                                          Clemieberg          AE09381-748806/05/200507/09/2024241502002022024sonji.armstrong@ltd.com                                                                             
