1Edd             Heaney              DDS139 Debroah Extensions Apt. 477                             West Mckinleyton    RI02901     01/15/201906/19/2025234112112222025charlton89@moore.com                                                                                
1Ansel          MRath                   59190 Austin Unions Apt. 861                                Lake Lillyland      SC06665-099009/16/199005/19/2025214311112222025dglover@yahoo.com                                                                                   
1Adrain         DHoeger              Jr.10354 Kessler Avenue Apt. 708                               East Juliette       PA18960-841202/01/194807/05/2025223312110022025                                                                                                    
1Faron          JWunsch                 685 Marcela Forges                                          West Camisha        CO80374     08/27/196006/10/2025234111112222025NM204@GMAIL.ORG                                                                                     
1Monroe         PJerde                  619 Wilbur Burgs                                            Drusillabury        MD21833     08/26/199408/25/2025242212112222025muller.dequan@yahoo.com                                                                             
1Randell        GLedner              MD 3149 Schaefer Tunnel Apt. 418                               Shaniaborough       NY11675     02/26/194404/21/2025242311112022025villa63@yahoo.com                                                                                   
1Gustav         SMarquardt           Jr.46406 Runolfsson Points                                     Albertton           IL62341     07/25/201407/14/2025234512110002025mildred.robel@gmail.com                                                                             
1Nunzio         BHills               Jr.29221 Rowena Overpass Suite 384                             Swaniawskibury      IL61548     12/05/196008/17/2025200000000222025                                                                                                    
1Thurlow        APagac               PhD1062 Wash Mountains Apt. 959                                Port Tatum          MO65844-062303/29/198507/02/2025234111110222025colvin89@thiel.org                                                                                  
1Aditya         GSchaefer               69688 Dickinson Glens                                       East Drury          SD57549     08/22/196503/30/2025223212112002025ewell.wolff@hotmail.com                                                                             
0Melva           Kuvalis                USNS Mayert                                                 FPO                   00419     04/09/195207/08/2025232511110022025                                                                                                    
1Sylas          WKoelpin             MD 3943 Mirtie Club Suite 952                                  East Corrinatown    PA17622-519803/06/201508/25/2025231512112202025                                                                                                    
2Kristyn        YCruickshank            785 Mueller Avenue                                          South Adaline       LA71084     05/02/193907/28/2025231211110202025                                                                                                    
1Blake          AWintheiser          DDS41683 Francis Walk                                          South Aylaport      IA50462-740709/18/193605/11/2025233511110002025daniele.effertz@yahoo.com                                                                           
1Montrell       KHoeger              PhD0909 Graham Cape Apt. 228                                   East Audrinabury    AZ85353-520606/01/195804/29/2025242112112202025grimes.esteban@yahoo.com                                                                            
1Lovie          H                       024 Evelyne Loaf Suite 980                                  South Gigi          AL35505     12/30/198207/05/2025214111112002025merna.kutch@and.com                                                                                 
1Wright         FStehr               Jr.601 Parisian Ford                                           Albertostad         NY11068-865410/07/200508/20/2025234111112022025                                                                                                    
1Leamon          Murazik             MD 0881 Lorine Meadows                                         Doyleberg           TX76778     07/09/200102/08/2025211112112002025raven42@little.com                                                                                  
1Booker          Gerlach             MD 305 Brakus Place                                            West Lorenzo        TX77720     03/05/195306/17/2025231512112022025                                                                                                    
1Eloy           NDaniel              Jr.0130 Imanol Manors                                          Quintonport         AE09944     12/20/193303/06/2025214512112222025                                                                                                    
1Delmer         KWehner              MD 2454 Gulgowski Forks                                        Port Lorneville     HI96832-289710/04/196803/28/2025224211110222025pleasant.stamm@hotmail.com                                                                          
1Ottie          TRatke                  32054 Jacky Pike Apt. 611                                   Kearaville          IN46658     04/03/197506/28/2025214112112002025venita86@yahoo.com                                                                                  
1               IFranecki               16205 Koelpin Bridge Suite 813                              New Delano          FL32192     11/11/201706/04/2025221311110002025                                                                                                    
1Winifred        Frami                  094 Hillary Common                                          Orrenport             69980-924912/08/201708/17/2025211512110002025                                                                                                    
1Fredric        CHudson              DVM10060 Kunde Overpass Apt. 433                               New Kelvinberg      UT84276     12/23/196303/04/2025200000000222025harvey.mychal@hotmail.com                                                                           
1Kiyoshi         Pfannerstill        DVM550 Adams Viaduct                                           Purdyport           NM87134-688207/13/195701/02/2025234312112022025                                                                                                    
1Rene           YGulgowski           MD 91301 Darron Extensions Apt. 796                            Hillsshire            51923-594411/30/196306/19/2025212111112002025                                                                                                    
1Teagan         UGreen               Jr.346 Bernhard Spurs Apt. 592                                 West Dorichester    LA71429     09/08/199507/18/2025214511110022025oheidenreich@gerhold.net                                                                            
1Knute          OLynch Rippin        Sr.49808 Stacy Village                                         South Griselview      73230     06/01/201906/25/2025233511112002025                                                                                                    
1Riley          BPacocha                7328 Fahey Pines                                            East Susannahtown   KS66185-542409/15/198908/11/2025222311110202025                                                                                                    
1Darien         BBailey              Sr.87255 Karli Fords Suite 920                                 South Christian     WV25860-035805/12/199208/12/2025213512112202025cronin.shanequa@group.com                                                                           
1Ezra           ISteuber                08091 Heidenreich Station Suite 821                         Trevinland          DC56952-398802/15/201805/26/2025232211112222025hoeger.gena@llc.com                                                                                 
1Isom           IWhite                  978 Barrows Center                                          Iraberg             TX76656-532302/23/201408/28/2025221512110022025mills.beckie@hotmail.com                                                                            
1Ras             Kling                  4326 Bednar Passage Suite 830                               Fayton              PA15375     05/28/193407/31/2025232111112002025pdoyle@bailey.com                                                                                   
1Virgie         FWeimann                10342 Muriel Neck                                           Kadenport           CA95540     02/20/197403/27/2025233211112222025                                                                                                    
1Oland          KDoyle                  68750 Frami Spur                                            Rickichester        AE09560-062305/10/195905/30/2025234312110002025glynis89@hotmail.com                                                                                
1Donnie         NSchmitt             Jr.15870 Elvia Stream Suite 721                                Lake Petraland      KS66960-858704/30/202306/23/2025211512112002025misael18@steuber.com                                                                                
1Ambers         ZMacejkovic          PhD1309 Kulas Trace Apt. 746                                   South Dejah           51902-470609/28/199207/28/2025233312112202025donn82@gmail.com                                                                                    
1Osborn         DHirthe              Sr.71569 Wilkie Landing Apt. 766                               South Smith         CA91239-720011/21/195002/19/2025231111110202025mwiegand@group.com                                                                                  
1Ismael          Halvorson           DDS50171 Marylin Corners                                       West GovernorchesterFL34739     10/24/193608/26/2025243112110002025ola29@gmail.com                                                                                     
1Elias           Lebsack             DDS7153 Tilda Field                                            Syedton             AR72567     01/02/194402/28/2025223311110022025shirlie24@baumbach.org                                                                              
1Kelby          AWeissnat            Jr.6816 Belva Run Suite 889                                    North Verlynbury    IN46988-353101/14/200301/18/2025243211110222025                                                                                                    
1Woodson         Reichert            Jr.29965 Mindi Estates                                         Vandervortside      KS66939     03/02/196505/19/2025224311112202025                                                                                                    
1Demarco         Bode                   957 Hirthe Locks                                            Mullerhaven         UT84421     07/27/197608/06/2025242212110222025                                                                                                    
1Olan           DFriesen                1923 Alford Mount Suite 255                                 West Almyra         SC29645-439509/28/193805/01/2025234512112202025                                                                                                    
1Burt           NPowlowski           MD 0885 Feest Groves Suite 250                                 South Almashire     WA98328-053112/05/198002/05/2025223212112002025sbergnaum@gmail.com                                                                                 
1Kristian       PBeer                Jr.860 Odelia Village                                          East Stetson        AR71800-353208/18/194304/16/2025212312110002025laney.howe@gmail.com                                                                                
1Jaiden         BWolf                Sr.710 Kuphal Courts                                           North Dessie        OH43534     08/23/201004/06/2025224312112002025olan.mcglynn@inc.com                                                                                
1Garland        JPollich             Jr.205 Fletcher Stravenue Suite 538                            Nikolausstad        WI61265     11/10/200402/09/2025244211110202025                                                                                                    
1Edmund          M                      864 Kent Village Apt. 752                                   New West            MI48471     05/19/196606/22/2025200000000002025igibson@and.com                                                                                     
1K              OWilderman           Sr.633 Hackett Lights Apt. 167                                 Lynnebury           PA15797     11/28/196209/05/2025214311112202025ikub@and.com                                                                                        
1Raymon          Yost                   27215 Kaela Prairie                                         Port Kaymouth       CO81196     12/06/200402/25/2025222212110002025norma.bode@leffler.info                                                                             
1Gale            Abbott              DDS8558 Lueilwitz Shoal Suite 406                              Bartonville         MN56134-167905/02/197007/02/2025224311112222025                                                                                                    
1Jakob           Maggio              Jr.51235 Gerlach Springs Apt. 553                              Wintheisermouth     MO64904     07/02/193004/28/2025222212110222025aborer@kris.com                                                                                     
1Jermain-Mace    Koelpin             DVM5578 Baumbach Route                                         Port Amos           IN46217-168305/21/200602/23/2025200000000002025                                                                                                    
1Glover         DRenner                 614 Diane Land                                              Orlandfurt          AZ85724-006109/05/194605/06/2025234512112202025werner82@yahoo.com                                                                                  
1Markell        MW                      12134 Feeney Glen Suite 355                                 Merrileemouth       OH44682     05/19/202507/27/2025234111112222025nathan13@hotmail.com                                                                                
1Vance   R .    RAufderhar              3640 Bins Spur                                              Zariahfort          OH45079-070601/14/201507/10/2025212211110022025dmills@wiegand.info                                                                                 
1Toma           XHermiston           DVM683 Hughie Estates                                          North Belvaport     MS39195     02/22/193805/16/2025241511110022025biddie89@hotmail.com                                                                                
1Abraham        THilpert             Sr.95095 Roxana Ramp                                           Leannonview         UT84586-735606/22/199804/24/2025232512110202025                                                                                                    
1Blane          NMorissette          DVM1619 Margery Club                                           North Ezrashire     OH43230     08/10/202103/04/2025244311110202025pcremin@yahoo.com                                                                                   
1Russel         BKeebler             Sr.345 Green Avenue Suite 391                                  Deniseport          HI89886     11/17/198601/09/2025243512110202025schmidt.lawyer@waelchi.org                                                                          
1Gil             Pacocha             DVM106 Bednar Skyway Suite 670                                 South Lyndsayhaven  AL36343-898505/08/199506/25/2025244311112002025                                                                                                    
1Dwane          ZDooley                 391 Kovacek Camp                                            Port Rosa           VA23588-100001/01/194901/14/2025234511112202025stella.bashirian@inc.com                                                                            
1Levie          JRitchie                18551 Lakin Lodge Suite 741                                 Port Sonjafort      AL36774-461201/09/198406/01/2025242312110202025nyasia17@yahoo.com                                                                                  
1Mitchell        Lemke                  71515 Burnell Mall Suite 112                                East Romonachester  NH34243-777908/19/201401/27/2025241212110202025                                                                                                    
1Harm            Abernathy              1034 Stroman Loop                                           Loweland            CA90213-863212/06/196908/08/2025214311112022025                                                                                                    
1Worth          CJakubowski Watsica     1285 Gleason Run Suite 481                                  Erdmanhaven         IL62440-067305/27/196804/05/2025200000000222025                                                                                                    
2Petra          LSchamberger            24193 Catrina Glen Apt. 591                                 New Rosinachester   OK74836-302209/29/197306/21/2025234212112202025maryanne.larson@yahoo.com                                                                           
1Horacio        RBlock                  2408 Teagan Expressway Apt. 422                             Faheyfort           LA71190-186708/11/194704/28/2025233312110022025roob.eleonora@hotmail.com                                                                           
1Harry           Boyle                  8933 Reichel Station                                        Kuhicmouth          KS66602-012207/07/195305/28/2025213512112222025ryker.rosenbaum@yahoo.com                                                                           
1Male           NGottlieb            PhD659 Twyla Cape Suite 945                                    Port Tennieside     NY14251     10/06/195502/17/2025200000000022025ola.marks@yahoo.com                                                                                 
1Clifford        Deckow                 103 Kurtis Ways Suite 784                                   Neilbury            TX79895     10/28/193203/24/2025233512112022025mylie.turcotte@hotmail.com                                                                          
1Rigoberto       Cummerata           MD 2041 Elvis Cliff Suite 121                                  Lake Frazier        MI79333     06/28/201601/29/2025242112110222025                                                                                                    
1Conley          Parker                 P.O. BOX 211                                                Dickishire          IL62096     05/31/198106/24/2025242212112202025                                                                                                    
1Desmond        SHegmann             DVM203 Benton Fork Suite 511                                   New Mychalborough   NJ07222     04/26/198607/14/2025213111110002025yoel.rodriguez@torphy.com                                                                           
1Denis           Barton                 13379 Beda Overpass                                         Port Thoshaven      VA22211-836409/08/195301/13/2025200000002022025aloysius.carroll@ltd.info                                                                           
1Emma            Roob                   4911 Halvorson Knolls                                       Abernathytown       UT84305     03/11/202204/11/2025200000000022025thelma52@group.com                                                                                  
1Koby           WSchmidt             PhD07399 Schuppe View                                          Zboncakside         TX75468     07/05/198406/18/2025242311112022025angelia.bednar@yahoo.com                                                                            
1Arley          RHodkiewicz             592 Darcie Hills                                            Bednarton           ND58643     06/26/198908/07/2025234311112022025reichel.annabel@gmail.com                                                                           
2Kirsten        HBecker                 4613 Hermiston Loaf                                         Emardchester        KY40573     12/16/199308/24/2025233311112002025                                                                                                    
1Cody           JSauer                  69914 Fritsch Meadows Suite 293                             East Tariqmouth     TN51717     10/13/196906/28/2025242111112202025                                                                                                    
1Rollie         ICummerata              75196 Trula Square Suite 719                                Chynnaside          TN37874     03/07/198302/13/2025222211110022025tromp.odalis@satterfield.biz                                                                        
1Booker          Cummings Murphy     Sr.05473 Grover Creek Apt. 558                                 Gavenchester        WI54880-288301/08/198308/16/2025241511110002025senger.amalie@yahoo.com                                                                             
1Leander        EGoldner             MD 31858 Jaskolski Glen Apt. 699                               Pinkieberg          ND58827     03/18/202204/05/2025232512110202025                                                                                                    
1Arthor          Padberg                76244 Jaycee Key                                            Deborrahstad        OH43563-533311/17/193205/30/2025200000000002025                                                                                                    
1Pierre         LRippin                 814 Gleichner Highway Apt. 412                              South Michellland   TN38242-977903/25/195001/20/2025213312112202025kihn.jorden@gmail.com                                                                               
1Parker AbdullahJHahn                DVM42223 Schowalter Knolls Suite 257                           New Thalia          IN47967     07/17/194402/02/2025200000000022025deeann.hilpert@hotmail.com                                                                          
2Raina          XJohnston               02321 Jarret Courts Suite 916                               Pinkiefurt          IA51324-007908/28/196301/13/2025232312110022025edgar43@hotmail.com                                                                                 
1Wayland         Bartoletti             629 Magdalen Loaf Suite 166                                 Kautzertown         IL60546     11/11/194801/26/2025232511110002025vandervort.donny@hotmail.com                                                                        
1Foch           BProhaska            MD 9939 Ronnie Common                                          Macejkovicside      WY82328     07/22/199006/13/2025234512112202025                                                                                                    
1Roma           XAnderson            MD 17183 Edd Rue Suite 990                                     New Asonberg        TN07062     02/07/193402/12/2025221512112022025murazik.noemie@gmail.com                                                                            
1Alto           IHessel              Sr.32091 Donnelly Wells                                        Frazierborough      NJ08175     08/29/199004/06/2025212511112222025fannie.senger@hamill.com                                                                            
1Dickie          Kohler Spinka       DVM9507 Bethann Harbor                                         East Benjaman       PA15608-231105/13/198001/03/2025200000000202025ima87@kunde.com                                                                                     
1Gilman         QBeatty              PhD42394 Robel Loaf                                            Maximoberg          IL62376-360503/01/195301/09/2025224111110222025                                                                                                    
1Jackson        HKuvalis             Jr.5143 Wuckert Terrace Suite 271                              Asberryland         IN47702     05/23/198705/06/2025234112112022025damarcus.dubuque@gmail.com                                                                          
1Heber          TKulas               Sr.37496 Price Squares                                         Lake Izabella       WV26036-289802/11/201201/23/2025231112112202025lucetta59@plc.com                                                                                   
1Gorden         CBode                   882 Robel Walk                                              Shieldstown         CO80635-983211/01/200104/17/2025234512112002025                                                                                                    
1Geary          DToy                    8650 Nikole Knoll                                           Naderburgh          OH44227     09/23/201703/02/2025234311112222025                                                                                                    
1Jamal          YBauch               MD 20103 Carey Gateway                                         Hillsfort           IA50954-467202/25/193307/13/2025221512112222025bart.streich@plc.info                                                                               
1Doll           QTillman             MD 003 Lacey Glens Apt. 375                                    Lake Hardie         ND58538-903903/18/196005/14/2025241112112022025marinda29@and.com                                                                                   
1Rolf           DNikolaus               5648 Prohaska Terrace                                       West Darleenfurt    FL33102-166008/15/195007/02/2025243111110022025                                                                                                    
1Jaylin         ABernhard Braun         056 Valeria Ramp Apt. 500                                   Kohlerhaven         VT05173     06/21/198608/15/2025214512110202025prohaska.penni@goldner.com                                                                          
1Theadore       XHoeger              DVM1331 Wunsch Coves Suite 876                                 Darynstad           AL43780     07/10/199107/17/2025211112110202025reinaldo.hodkiewicz@gmail.com                                                                       
1Wayne          ZWard                   048 Robin Drives Apt. 709                                   Jarettville         MA02290     04/10/199908/19/2025233511110202025aubra99@kirlin.com                                                                                  
1Dane           JRath                   476 Michaela Lake                                           Whitestad           VT05309     12/10/193504/19/2025221511110002025                                                                                                    
1Ellwood        MLesch-Bauch         DDS77676 Bogan Meadow Apt. 261                                 Jelanichester       MA02015-261403/30/197302/13/2025231511110222025uyost@gmail.com                                                                                     
1Desean         QBarton                 84752 Pollich Motorway Suite 059                            New Britany         AL36872-040408/10/194504/24/2025242211110022025                                                                                                    
1Lem            VMonahan             Jr.764 Cordella Oval Apt. 191                                  Beerville           MO64004     03/12/198003/20/2025213512110022025                                                                                                    
1Ronny           Howell                 772 Cassin Stravenue                                        Huelbury            TX79235-634107/08/201608/17/2025200000000022025                                                                                                    
1Eddie           Steuber                7178 Boysie Road                                            Simonisfurt         MO19940-447110/10/201501/28/2025221111112202025vcole@glover.biz                                                                                    
1Kian           FBogisich            DVM83860 Carmella Canyon                                       North Jaimietown    WI53771-541202/08/194002/25/2025242512112002025                                                                                                    
1Arvo           ZRempel              MD 94393 Harris Via                                            New Infant          CA95167-398901/16/194406/18/2025214312112202025boston71@gmail.com                                                                                  
1Emory          RStoltenberg            8932 Rudolf Prairie Apt. 151                                South Odie          TX76600-360107/05/201207/23/2025200000000202025                                                                                                    
1Jose           VDooley                 036 Berniece Dale                                           Lake Rex            DC56935     05/25/200001/10/2025244512110002025zeb27@yahoo.com                                                                                     
1Clemence       BHettinger           Sr.04204 Tobias Knolls                                         South Elzadaborough TX76797     07/15/193408/12/2025200000000022025ifisher@tillman.com                                                                                 
2Chelsi         YDouglas                6751 Oliver Route Apt. 121                                  Port Ronin          OH45888     12/04/195803/26/2025221112110202025luisa.prosacco@gmail.com                                                                            
1Zaiden         NBoyer               PhD64646 Ferry Motorway Apt. 442                               New Michelle        TN37681-201201/07/200707/29/2025213111110002025ykeeling@mayer.org                                                                                  
1Desean         ESwift                  0230 Fahey Meadow Apt. 319                                  Williamsonborough   TX76546-615208/22/198204/30/2025221512110022025                                                                                                    
2Micah          IDare                   7551 Cremin Lake Apt. 688                                   Waelchiborough      VT05478     08/09/193105/25/2025221112112002025                                                                                                    
1Wellington     SPouros              Sr.775 Karter Grove                                            Hoegerborough       NY14328     01/26/195503/03/2025200000000202025georgia.mraz@yost.com                                                                               
1Sherman         Kozey               DVM976 Mann Views Apt. 908                                     Boehmview           FL34715     12/29/199805/31/2025213312110222025dubuque.dean@yahoo.com                                                                              
1Esau            Corwin                 55959 Kenji Park                                            Lueilwitzview       IL64900-579908/19/198405/14/2025222312110222025haag.tiarra@hotmail.com                                                                             
2Lilie           Lehner                 23973 Miller Stravenue                                      North Rhys          FL32032     11/21/196106/27/2025222511112022025                                                                                                    
1Leopoldo       CLittel                 3596 Fleming Prairie Suite 814                              East Stoney         VA23619     03/19/198803/02/2025244211112202025                                                                                                    
1Alexandre       Kshlerin            Sr.413 Brakus Fort                                             Jillland            IN46841-609601/26/196008/02/2025214511112202025clittle@mcclure.net                                                                                 
 Alvia          IMertz               Sr.6927 Levar Springs Suite 710                                Laurynhaven         IA51125     04/20/200704/29/2025242111110002025aschamberger@gmail.com                                                                              
1Savion          Orn                 Sr.78541 Boston Harbor Apt. 838                                North Bird            21390     12/09/199502/26/2025241111112202025joy41@yahoo.com                                                                                     
1Torrance       JBahringer              25342 Levy Ranch                                            Mayertland          NC27921-153701/18/200003/28/2025241212110002025                                                                                                    
1Bertram        MHermann             Sr.2719 Vern Estates                                           Lake Lidietown      CA91659     08/07/196607/28/2025213112112002025austin58@wolf.com                                                                                   
1Fleming         Herzog              DVM930 Ferry Grove Apt. 502                                    Port Jayceeview     WI54351-490907/07/199503/19/2025222512112222025karyl.swaniawski@grady.biz                                                                          
1Delmar          Durgan              MD 3200 Braun Brooks                                           Millsville          MA01552     06/17/198605/03/2025233511112002025                                                                                                    
1Algernon       MThompson            PhD6748 Nanci Forest                                           Sanfordfurt         OH43066-238704/16/195001/02/2025212311110002025ueichmann@ltd.info                                                                                  
1Louis          TBeatty                 PO BOX 428                                                  Ziemannburgh        AR71930-776406/01/202303/26/2025234211112002025qbartell@hotmail.com                                                                                
1Delmer         NBatz                DDS99677 Maxine Alley Suite 130                                New Dontae          NY14487     02/09/196206/18/2025223312110222025moen.anton@inc.com                                                                                  
2Helga          NJones                  845 Lesch Park                                              West Jamila         WV25733-528112/16/197304/26/2025214511110202025emertz@hodkiewicz.com                                                                               
1Donavan        DBechtelar-Zulauf       8890 Braun Circle                                           Stantonton          IA51101     08/21/194308/22/2025244112110202025tyreke00@inc.com                                                                                    
1Iver           TDare Farrell        DDS1455 Lula Shores                                            New Brynleechester  MI49971     08/04/201601/14/2025243211112002025leslee.stark@zieme.net                                                                              
1Rosario        ABreitenberg            339 Brakus Neck                                             South ViridianahavenIL52886-019008/01/198002/13/2025241311112202025sandi.greenholt@gmail.com                                                                           
2Lyn            YPfannerstill Collier   8610 Ledner Meadow                                          Torybury            NE69279-285804/14/197307/03/2025211312112222025                                                                                                    
1Esteban         Weissnat            Jr.723 Lute Track Suite 379                                    Lake Cleve          MD20711     05/03/193803/19/2025223511112002025corean61@hotmail.com                                                                                
1Hart Rodney    TSipes.              PhD8186 Trevon Garden Suite 116                                Schneiderport       AR72823-279503/03/194403/31/2025222112112022025                                                                                                    
1Pleas          VCremin                 584 Gusikowski Landing                                      Clemmachester       RI93309     11/12/195606/21/2025222312110002025nevada.legros@carter.biz                                                                            
1Harl           BGottlieb            MD 3217 Collins Spurs Suite 868                                Gradyborough        DC88883-876307/03/193602/16/2025234212112002025hschmeler@runolfsson.net                                                                            
1Cristopher      Hayes                  6184 Bertina Green                                          North Ahmadland     SC29053     07/22/193805/22/2025211211112292025albertha22@yahoo.com                                                                                
1Stephon        NStoltenberg         Jr.862 Gleichner Centers                                       Ornborough          NY11724-783010/12/196708/16/2025244212110222025leffler.aldo@bernier.com                                                                            
1Meyer           Hansen              DVM4051 Cole Squares                                           Purdyview           SC29030     06/26/202403/22/2025221512112002025                                                                                                    
1Halsey         WRohan               Jr.682 Johnson Crescent                                        East Bryleehaven    NJ07251     07/13/193507/01/2025233512110222025woodrow.vandervort@hotmail.com                                                                      
1Guilford        Pfannerstill        Jr.40384 Volkman Parkway Suite 236                             Kaleyburgh          WY82630-227408/30/197503/03/2025222212110222025                                                                                                    
1Rocky           Runolfsdottir       Jr.916 Kemmer Pike                                             Eliseborough        PA16037-339403/02/194606/24/2025212212112202025lisette.beatty@yahoo.com                                                                            
1Reggie         QHowe                DVM06631 Beahan Lakes Apt. 909                                 Loweport              51902     07/26/193807/28/2025244212112222025                                                                                                    
1Devante        ULakin                  7957 Spinka Station Suite 062                               Mitchside           TN97118     08/24/202503/30/2025200000000022025fgoyette@yahoo.com                                                                                  
1Jaylan         SMayer               PhD10745 Larson River                                          East Reynoldsburgh  WI54586     05/26/200504/19/2025212311110202025schmeler.love@yahoo.com                                                                             
2Nelia           Rosenbaum              9439 Rutherford Landing Apt. 270                            Kulasstad           OR97583-319512/10/198401/20/2025214111110202025ransom.cassin@gmail.com                                                                             
1Deryl          QCruickshank         DVM299 Auer Lights                                             South Pat           VA23031     12/15/197404/04/2025221312112222025sydney19@yahoo.com                                                                                  
1Nasir           Marks               MD 9741 Franecki Mount Suite 613                               North Santo           00341-032412/03/202007/23/2025234312112022025                                                                                                    
1Rolando         Fadel                  424 Denesik Mall Suite 652                                  Lake Jeffry         MI48293-230905/22/202307/16/2025131212110222025                                                                                                    
1Greyson        UBarton                 7814 Lemke Fort Apt. 578                                    North Kaelynbury    FL34263     08/22/194705/31/2025223212112022025rschuster@heller.info                                                                               
1Aurthur        BHerzog                 013 Sariah Island                                           North Amerigo       TN37781-448409/29/201902/08/2025222212112222025pdenesik@o'hara.info                                                                                
1Gilman          Waelchi                312 Crooks Glen                                             Wuckertton          MO26815     10/19/201101/29/2025231512110022025                                                                                                    
1Randolph       OHudson              Jr.5408 Murazik Cliffs                                         West Gretchenborough  89692-731502/25/196505/25/2025231511112022025                                                                                                    
1Samson         ZFeeney              Sr.64469 Jeanie Isle                                           East HortenseboroughNJ07088     03/03/198101/19/2025222211112202025zion.stamm@group.com                                                                                
1Giles          CMorar               DDS2219 Stark Centers                                          North Okeyfurt        90948     02/26/195102/09/2025200000002022025geneva21@hotmail.com                                                                                
1Silvio          Lebsack             DDS02534 Byron Radial Suite 786                                Wintheiserchester     65921-015406/28/193104/03/2025224311110202025                                                                                                    
1Eloy           THayes               DDS1794 Gerald Corners Suite 177                               Jacobsonfurt        CT06285-047105/21/201602/20/2025244311112222025sanford.mannie@plc.com                                                                              
1Jase           SJohns               PhD004 Zemlak Ranch                                            East Kelcieview     VA22269     11/05/197207/26/2025241112112022025giovanni86@hotmail.com                                                                              
1Grant           Gibson              DVM6512 Laurie Canyon Apt. 743                                 Pagachaven          GA31685-069302/17/199603/22/2025242311112202025rbaumbach@gmail.com                                                                                 
2Maliyah         Hermann                82808 Lera Flats Apt. 907                                   West Buster         VA22947     07/03/193406/13/2025211111112002025fritsch.margarett@collier.com                                                                       
1Jagger          Nader                  5563 Marci Path Apt. 180                                    Lake Janeyton       ND58899     03/22/194203/04/2025231212110002025kshlerin.colvin@hotmail.com                                                                         
1Eldon          QSchultz             Sr.24377 Olena Junctions                                       Latoyamouth         TX78555     05/14/202308/24/2025234311110202025taniyah.rosenbaum@yahoo.com                                                                         
1Gale            Conroy                 047 Leffler Plain Suite 931                                 East Benjaman       WI54855     07/26/197503/16/2025213311112002025pfeffer.daija@lang.com                                                                              
1Reginal         Farrell                9399 Ferman Port                                            North Thresa        MS38775-855703/31/202006/01/2025213311110202025                                                                                                    
1Sharif          Raynor              DDS448 Effertz Loop                                            Runolfsdottirview   DC56973-427804/26/196005/07/2025224111110222025eupton@lakin.net                                                                                    
1Jan            PHickle              MD 73653 Jadyn Light                                           Olenafurt           TX78573     10/03/200306/21/2025233311112222025devan.parker@gmail.com                                                                              
1Leamon          Klein                  53167 Bins Dam Apt. 197                                     New Savillafort     NY11175     11/11/198803/19/2025221312112222025thomasina.parker@yahoo.com                                                                          
1Randel         WTremblay            MD 504 Klocko Walk Apt. 248                                    South Yoshiotown    TX75142-943611/18/197605/21/2025221512112022025block.manila@walsh.net                                                                              
1Camron         QHuel                DDS403 Hickle Estates Suite 394                                Lake Declanfort     AZ85361-723409/20/193904/28/2025214212110002025hennie79@yahoo.com                                                                                  
1Gifford        DJohnston            PhD09961 Jolene View Apt. 741                                  Elyside             TN44224-093401/19/194807/25/2025222512112022025tremblay.karley@wilderman.biz                                                                       
1Clayton        JKing                   3225 McGlynn Extension                                      West Suzanmouth     IN47937-397406/28/200805/24/2025241112110002025farrell.willaim@hotmail.com                                                                         
1Benjamen       DBernhard            Sr.15573 Smith Roads                                           Port Liller         IL62626-137507/21/194804/28/2025221211112002025                                                                                                    
1John           LKutch                  471 August Keys                                             South Lavernaville  NY12407-294208/27/198401/14/2025200000000022025smraz@stanton.biz                                                                                   
1Clark          HKuphal                 7246 Markel Lakes                                           Irenabury           VA23422     12/13/200003/30/2025243112110202025                                                                                                    
2Felicitas      UKshlerin               P. O. BOX 162                                               South Aliza         CA91019     12/10/197708/30/2025241111110022025myranda35@yahoo.com                                                                                 
1Phil           CHowell              MD 34077 Willms Burgs                                          Abshireton          NM90096     07/26/193407/05/2025200000000022025danial62@baumbach.net                                                                               
1Daulton        WRau                 Sr.036 Abernathy Ridge                                         Sanfordville        MS39728-808210/18/200204/11/2025242211112222025alessandro.balistreri@mclaughlin.com                                                                
1Early           Marks                  3441 Sylvanus Isle                                          New Marla           CA93295-229809/28/202103/19/2025214111110222025NA@GOV.COM                                                                                          
1Elliott        XFarrell                692 Krysta Mount Apt. 081                                   South Jo            TN38131-087704/02/200605/12/2025222212110002025                                                                                                    
1Alvin          CKub                    79885 Reichel Plains Suite 096                              South Zanaburgh     AL85416-837804/16/195303/21/2025232312110222025                                                                                                    
1Ollie          VSpinka                 08753 Carter Cliff Suite 486                                Shanahanside        NE69184     01/31/200104/11/2025223111110202025sydnee.grant@yahoo.com                                                                              
1Finnegan       DHaag                Jr.7890 Lahoma Fields Suite 376                                West Baylieland     IN46714     12/12/202008/02/2025243112110202025beahan.julianne@ltd.com                                                                             
1Colton          Ziemann             MD 84045 Hauck Common                                          Cassieville         ID83285     05/08/201302/21/2025244511110202025vonrueden.hermann@fisher.net                                                                        
1Barnie         XLynch               DDS731 Chesley Extension                                       Port Bethanymouth   MA01751     01/06/200007/20/2025231212112022025dalton.turner@yahoo.com                                                                             
1Hamilton       KRempel              Sr.232 Beyonce Divide Suite 707                                South Alvy          GA31753-339403/26/193702/24/2025231212112022025                                                                                                    
 Regis          EEffertz             PhD0696 Fremont Estates                                        Torphyview          VT60019-757203/17/194705/10/2025243112112002025harber.royal@altenwerth.com                                                                         
1Arnav           Mueller             DVM7224 Mikal Wall Suite 794                                   Konopelskihaven     PA18294-282407/11/195303/03/2025234212110002025                                                                                                    
1Chace-Dennis   OPagac                  397 Weimann Key                                             South Ronald        NV89491     11/16/193507/09/2025200000002002025zbogisich@yahoo.com                                                                                 
1Cristofer      ITowne                  58068 Margarite Lock                                        East Beatrixchester NY10008-555605/17/200203/19/2025243511112222025                                                                                                    
1Kem            GBeatty                 00039 Stehr Port                                            Angusstad           NY12146     10/29/193605/21/2025223512112022025                                                                                                    
1Daryle          Gislason            DVM796 Londyn Ville Suite 626                                  Creminstad          ND58627-285107/18/193308/12/2025234311110022025lilah49@yahoo.com                                                                                   
1Tatsuo          Gleichner              6337 O'Conner Lane Apt. 116                                 Wehnerside          IL60319-250809/12/196002/28/2025232212110222025roberts.lylah@little.org                                                                            
1Golden          Heathcote           DVM802 Jordin Estates                                          Jorjabury           CA92844     09/07/198506/06/2025221511112002025                                                                                                    
1Dell            Spinka              MD 39857 Bartell Parkways                                      West Adriennestad   NY13413-988610/10/193005/11/2025222112110002025                                                                                                    
1Cleave         ZUllrich                495 Abner Loop                                              Turnerchester       HI85791     07/20/193805/13/2025214312112202025calla44@hotmail.com                                                                                 
1Arno           VThiel               Sr.597 Little Loaf                                             Moirachester        VT05183     08/10/200205/26/2025242312112202025moody56@gmail.com                                                                                   
1Leroy          FKoch                DVM95465 Wiza Flats                                            Lake Lalatown       NC28080     10/29/200402/05/2025200000000022025myra.ledner@llc.com                                                                                 
1Oda            HHessel              DVM165 Hills Meadow                                            Amberlyland         FL33866-966102/10/196005/26/2025223111112022025leonidas.berge@hotmail.com                                                                          
1Nash Elwin     VWitting             MD 4718 Johana Divide Suite 384                                East Blaine         VT05448-534301/17/199705/19/2025244512110202025boyle.jeb@gmail.com                                                                                 
2Sally           Schmitt                950 Taja Lake Apt. 299                                      New Kraigton        WV25746     02/21/193407/08/2025234511112202025ukoch@gmail.com                                                                                     
1Virgle         AVon                    5667 Harrison View Suite 861                                Hermanberg          WY82315     07/24/198101/25/2025221212110022025gleason.marlyn@hotmail.com                                                                          
1Tylor           Leffler                459 Senger Stream                                           Lake Frankhaven     WI54893     07/12/199308/19/2025231112112202025                                                                                                    
1Coley           Kuhn                   96711 Gerlach Fields Apt. 449                               Yundtfort           MO63556     07/27/193709/06/2025242311112222025hhackett@yahoo.com                                                                                  
1Preston        HAuer                Sr.598 Aufderhar Rest                                          Bodeview            GU96904-456510/08/201806/21/2025214512110022025kemmer.silvester@mohr.com                                                                           
1Gardner        CBradtke             MD 5836 Fleet Mill                                             East Taurusland     IN46241-948603/05/199501/08/2025200000000002025ucummerata@gmail.com                                                                                
1Sigurd         OKoch                   7560 Kellen Island Apt. 592                                 Ritchieberg         MS60480     01/07/194703/18/2025200000002022025kandice.von@inc.biz                                                                                 
1Marchello       Lind                   700 Hadassah Pines                                          Emmerichfort        FL34785-997505/27/193801/22/2025212211112022025joellen19@wehner.com                                                                                
1Florentino     KLindgren            MD 21685 Mae River Suite 767                                   North Arlena        PA18514     11/11/194802/12/2025242112112202025lana.ebert@kuvalis.com                                                                              
1Thos            Fadel               DVM6505 Ottie Forks Suite 352                                  Wizachester         CA94489     01/27/195702/27/2025232312110002025bpollich@cummings.org                                                                               
1Ashby          XHansen                 4199 Irwin Extensions                                       Humbertoton         PA17660-585211/22/196801/01/2025224311110002025streich.luverne@group.com                                                                           
1Davonte        ABeier               DVM5793 Kristyn Locks Suite 538                                Winfordmouth        NH03726     10/19/193501/17/2025214311112002025                                                                                                    
1Hurley         BCarroll             MD 913 Padberg Spurs                                           Whitestad           VA23669     08/05/202506/08/2025221511110202025rutherford.elena@jerde.com                                                                          
1Dorsey          Blick                  793 Baumbach Keys                                           Jacquelynview       IL60863     05/06/198302/22/2025224112110222025rettie.kuhn@ryan.net                                                                                
1Trent          GKunze                  6567 Denzel Creek Apt. 127                                  Schambergerborough  WI54091     02/26/199901/07/2025211112112222025                                                                                                    
1Carey           Connelly            DVM6501 Carolynn Lock                                          West Reynaldoland   DC20434-633006/18/201201/20/2025200000000002025ekub@yahoo.com                                                                                      
1Jarrell         Kshlerin            Sr.9932 Akeelah Rapids Apt. 428                                Leuschkeport        NE68742     12/04/199606/25/2025224512110022025jean70@mills.biz                                                                                    
1Edsel          RCrooks              DDS898 Daniel Ford Apt. 452                                    Vernellfurt           87240     03/12/201002/28/2025231112110202025                                                                                                    
1Kem            GBeatty                 00039 Stehr Port                                            Angusstad           NY12146     10/29/193605/21/2025223512112002025                                                                                                    
1Phil           CHowell              MD 34077 Willms Burgs                                          Abshireton          NM90096     07/26/193407/05/2025200000000002025danial62@baumbach.net                                                                               
