1Ebb             Ryan                Sr.39433 Melodee Crest                                         Lake BurdetteboroughWA99228-781510/09/200106/25/2024224512112022024madison.connelly@simonis.biz                                                                        
1Alexzander      Green               DDS575 O'Kon Brook Apt. 494                                    Port Glennport      WV25745-853111/10/198806/13/2024231312112022024treutel.refugio@torp.com                                                                            
1W              SDicki               DVM677 Funk Fords                                              South Noelmouth     OH43019-669104/03/202307/16/2024241111112202024abshire.katherin@yahoo.com                                                                          
1Emilio         CGislason               3719 Schmidt Wells Apt. 871                                 New Koby            ID83671     08/09/196603/23/2024200000000222024noe.hirthe@yahoo.com                                                                                
1Zeb            PRau                    5071 Kozey Walk Apt. 779                                    New Cherryl         PA17725     09/05/197704/29/2024221112112222024lashonda.okuneva@kihn.com                                                                           
1Josef          EFrami Stoltenberg      60904 Cecilia Curve                                         Araceliport         CA94031     07/21/200903/12/2024213111112202024samie94@group.com                                                                                   
1Chase          BRitchie                8566 Kutch Drive                                            Beattyton           WA16915-095511/15/199106/19/2024213112110002024liddie.blick@gmail.com                                                                              
1Myron          MVonRueden Nader     DVM25080 Spinka Roads                                          Dibbertville        LA70165-749909/11/197201/30/2024242512112002024lorri.luettgen@and.com                                                                              
1Vinton         MMurphy              PhD35920 Stroman Bypass Apt. 114                               Berniertown         NM87890     10/11/199106/06/2024223512110002024mace.halvorson@crooks.info                                                                          
1Lennon         GCorkery                9272 Junious Trail Apt. 073                                 Emaport             AZ85347-367512/24/201802/23/2024231111112002024uwuckert@yahoo.com                                                                                  
2Maryann-Taniya VBrown                  8635 Joy Avenue                                             East Karmamouth     NE68797     11/14/199101/15/2024213111112002024damarcus50@yahoo.com                                                                                
1Edd            SHuels               Jr.00209 Corwin Islands                                        O'Connellside       TX75904     01/13/197608/26/2024233311110002024kassandra23@aufderhar.net                                                                           
1Kiyoshi         Feil                DVM0132 Merrilee Union Suite 929                               Breitenbergport     NM88393     08/29/195403/05/2024233212112022024jacobi.marlyn@plc.com                                                                               
1Micky          IGrady               DVM8457 Schmidt Fort                                           Austinborough       LA71325     09/17/197904/01/2024231211110202024ashely53@hotmail.com                                                                                
1Charlton       RZieme               Jr.21725 Zulauf Views Suite 471                                Leannonmouth        MO64763-998111/11/194704/27/2024231212110222024bailey.green@yahoo.com                                                                              
1Linwood        PProhaska            Sr.5318 Grady Vista                                            Langoshhaven        KS67256     08/07/194102/16/2024242211110222024ruecker.brennan@hotmail.com                                                                         
1Andreas        DLind                DDS64852 Abernathy Path                                        Jackieshire           69988-342810/29/197601/20/2024232311110202024willms.venus@gmail.com                                                                              
1Tristen        HBeer                   293 Kilback Drive                                           Jastburgh           OK74113-133104/22/200706/30/2024200000002002024ceil98@hotmail.com                                                                                  
1Ira            GMuller-Schuppe      Jr.9045 Milda Branch                                           West Cliffie          00064     03/22/201508/18/2024231112110022024kdickens@hotmail.com                                                                                
1Neil           YPurdy                  42326 Zena Spur                                             Mayermouth          VA22765-311807/27/195808/03/2024214311112022024sonia33@gmail.com                                                                                   
1Emmet           Reichel             MD 09419 Erika Walk Apt. 687                                   Amaliaville         NY13646-336307/12/196008/21/2024211511112222024charly.marvin@davis.info                                                                            
1Tarik-Mickey   KReichel                8180 Manning Bridge Apt. 952                                East Jewel          MO65161-695403/20/201004/23/2024211511110002024howell.mahalie@mitchell.info                                                                        
1Lindell         Jones               Jr.306 Waelchi Manor                                           South Leanaview     VA24627     09/06/195808/09/2024214111112002024daria.moore@bergstrom.com                                                                           
1Posey           Stokes                 05037 Fayette Overpass Suite 634                            North Cathi         AL36419-848503/21/200403/27/2024241311110022024nena38@inc.com                                                                                      
1Talon          KBins                MD 90803 Kris Prairie Suite 584                                West Raelyn         OR97324     03/05/202204/07/2024231312110022024reilly.eustace@hotmail.com                                                                          
1Sean           DMcClure             MD 5245 Shields Roads                                          Rempelburgh         MO63379-250205/18/193206/18/2024214112112222024britton69@yahoo.com                                                                                 
1Warren         GEmard               DDS092 Murphy Lock                                             Georgeport          KS66476     12/20/198806/01/2024221112112022024arlen54@crist.info                                                                                  
1Keanu          FO'Conner            PhD24520 Barbra Oval Apt. 941                                  East Torrence       KY42340-319501/13/199901/31/2024244312112222024tanya89@grant.org                                                                                   
1Ike            BBorer                  83671 Justen Views Suite 865                                East Jimmy          MS38837-899707/10/195801/30/2024243112110222024loris.cartwright@and.com                                                                            
1Russell        JStanton             MD 00968 Toya Fort Apt. 440                                    Rickieside          OK85655-948110/13/195405/23/2024211511112222024rolfson.nallely@group.info                                                                          
1Les            AErdman              Jr.434 Lisandro Trail                                          Zulaufborough         53371     05/08/197201/24/2024200000002022024isiah84@blick.info                                                                                  
1Seneca         GLehner                 6633 Doyle Island Apt. 605                                  Jocelynborough      MN85331-646206/13/201607/13/2024213511112202024bertha.renner@hotmail.com                                                                           
1Abbott          Koss                Sr.77419 Calvin Pine                                           East Emily          TN37262-026703/27/193306/13/2024231112110022024glendora21@gmail.com                                                                                
1Clemence       RHermiston           Jr.2904 Hoeger Way                                             North Urbanmouth    TN38470-233411/17/197108/27/2024224111110002024uleuschke@franecki.com                                                                              
1Wylie          NHudson                 856 Nile Dam Suite 546                                      East Alba           CA91328     03/30/200906/10/2024244112110022024ddickens@yahoo.com                                                                                  
1Hadley          Mertz               DVM2228 Johnston Route Apt. 372                                D'Amoreview         MA89555-019208/02/196807/05/2024200000000022024irogahn@collins.com                                                                                 
1Johnson        YFisher              Jr.6021 Kia Meadows                                            West Eddy           HI60510     01/04/193807/05/2024234111112002024jensen89@blick.com                                                                                  
1Berkley        MDonnelly            MD 7898 Callie Harbors Apt. 126                                Lake Linwoodton     NY13000-101104/29/194808/25/2024242212112002024elbert06@ortiz.biz                                                                                  
1Carl           LFlatley                0567 Beatriz Bridge                                         Olieshire           AZ85113     07/07/194005/16/2024200000000002024kihn.haley@plc.com                                                                                  
1Maddux-Davonte LBahringer              3230 Torp Fields                                            Port Lenna          IL61433-076902/13/195502/02/2024222511112002024rodriguez.belinda@jakubowski.com                                                                    
1Conor          BO'Hara              PhD97171 Pollich Courts Apt. 167                               Lake Nadineton      FL33036-747901/27/198808/11/2024200000000022024mcclure.ruel@champlin.com                                                                           
1Kwame          YHarris                 009 Marc Throughway Apt. 547                                South Maudeburgh    OK73862-849002/12/194509/02/2024244211110202024darrien52@inc.com                                                                                   
1Codey          LDickens             PhD52536 Paucek Track                                          Flatleyland         MT59690-905608/04/195401/07/2024221211110022024jackie00@gmail.com                                                                                  
1                Bashirian              7486 O'Reilly Lane                                          Lake Gayla          IA51610-900308/09/195704/09/2024244211112202024shodkiewicz@gmail.com                                                                               
1Kerry          CEffertz             MD 41936 Schinner Village Apt. 804                             Port Sabramouth       21387     08/14/202004/18/2024223212110222024nraynor@gmail.com                                                                                   
2Hazel          YSpencer                76367 Morissette Shores                                     East Jerrell        AR72176     05/22/193406/24/2024123112110202024hjalmer.heidenreich@yahoo.com                                                                       
2Ayleen         GMcKenzie               4435 Abernathy Oval Apt. 607                                East Domenicview      64258-285508/28/199305/29/2024241311110002024trenten35@plc.com                                                                                   
2Ivory          KHeathcote              22346 Cordero Orchard Apt. 194                              Millsberg           KY41633     08/22/196606/24/2024221312110222024awisozk@emard.com                                                                                   
1Andrae          Johnston            Sr.5153 Prohaska Street Apt. 858                               Hamillport            69441-122508/02/199702/21/2024243212112222024roberts.fronnie@hahn.com                                                                            
1Fernando       MBartoletti          DDS1094 Palma Coves Suite 491                                  North Ozzieport       58997-796607/11/194606/30/2024213511112222024jodie01@gmail.com                                                                                   
2C              VRau                    5648 O'Keefe Bypass Apt. 074                                Kilbackport         NJ08972     08/19/193509/02/2024232211112002024wo'reilly@group.com                                                                                 
1Conner-Jaymes  YMcDermott              070 Harvey Ranch                                            Jamestad            KS67069-375410/21/196802/09/2024231212112222024irena.simonis@and.org                                                                               
1Rand           ARuecker             PhD863 Darnell Haven Apt. 380                                  South Feleciastad   IN47544-863003/02/195803/04/2024223312110202024cnitzsche@bruen.com                                                                                 
1Solon          USanford             DDS368 Meda Route Apt. 820                                     East Bridgerburgh   NH03158-629809/28/195501/29/2024244511110002024zkessler@hotmail.com                                                                                
1Millard         Berge                  37440 Bo Glen Apt. 837                                      South Serinachester NJ07178     08/27/198907/14/2024213212110002024gbruen@gmail.com                                                                                    
1Chancey        UPurdy               DDS3345 Casper Lake Suite 893                                  Germaineshire       FL33851-050802/05/193708/16/2024200000000022024clora.lesch@inc.biz                                                                                 
1Vernon          Reichel                24173 Mustafa Landing                                       Arramouth           NJ08667-843802/15/195204/03/2024233511112022024bednar.selina@yahoo.com                                                                             
1Lester         GMraz                Sr.2510 Langosh Fall                                           West Jeffery        OK73807-840303/02/196203/14/2024212311112002024gloria.effertz@hotmail.com                                                                          
2Lakesha        WLesch                  8120 Farah Avenue                                           Kesslerborough      NY12484     06/12/193202/18/2024231512110202024mason16@wyman.biz                                                                                   
1Jethro          Osinski             MD 353 Tawana Walk Apt. 399                                    North Guillermoland NY13768-092909/14/202002/06/2024221511112202024ubeer@hotmail.com                                                                                   
1Aditya         HAuer                   567 Haley Centers Suite 008                                 New Maudieton       WI54531     11/06/195209/01/2024231111110202024cinda30@senger.com                                                                                  
1Harlie         JAnkunding           DVM80401 Farrell Isle                                          Lake Tawandashire   MT59070-916904/20/194602/13/2024233112112022024goyette.brad@ritchie.com                                                                            
 Donte          FCole                   2698 Amina Mountains Apt. 836                               South Elianna       NY12364-772108/02/198207/25/2024241311112222024labadie.theo@group.info                                                                             
1Trevion        FHaag                PhD35353 Maggio Falls Suite 747                                East Royce          MD21724-457903/22/197201/09/2024242312112022024tyrik98@mills.com                                                                                   
1Robbie         EBalistreri             69868 Reynolds Curve Apt. 216                               South Analia        OH43973     06/03/196005/15/2024213312110022024NONE@TPWD.TEXAS.GOV                                                                                 
1Clemente        Jerde               Jr.9817 Yundt Dale Apt. 548                                    Myrtiehaven         MO65897     07/17/194602/20/2024211512112222024alicia.mckenzie@group.com                                                                           
1Levern          Doyle                  151 Merlene Viaduct Suite 331                               Justineside         WI54277     04/27/197206/29/2024231111112222024jacob.doyle@price.com                                                                               
1Lamont         LSchoen                 05440 Grady Plain                                           Ornbury             OH45987     04/27/194402/03/2024213511110222024lhackett@hotmail.com                                                                                
1Hill           YBogisich            PhD725 Annice Extensions                                       Hagenesburgh        NJ07095     05/18/201901/10/2024221311110002024grant.kiersten@hotmail.com                                                                          
1Adelard        LBerge               DDSPO BOX 494                                                  East Melisachester  MN56559     11/12/199201/30/2024212311112002024deric.dickinson@llc.com                                                                             
1Donte           Schumm              Sr.551 Leannon Rest Suite 033                                  West Demetriosstad  KS67247-310211/25/199304/14/2024200000000222024langworth.montie@hotmail.com                                                                        
1Mathew          Monahan                0446 Huels Trace                                            South Danieleland   NY11764     01/22/200007/05/2024241111110222024frodriguez@llc.com                                                                                  
1Russel          Quigley                520 Senger Stream Apt. 528                                  North Jensen        MN56722     04/16/200404/18/2024200000002022024abdiel.bergstrom@group.com                                                                          
1Rafael          Collier             Sr.7333 Verner Causeway Apt. 157                               Port Danika         NC27579     03/02/193302/11/2024221512112222024opouros@gmail.com                                                                                   
1Flint          HHermann                392 Kori Wall Suite 548                                     Bethannport         CA45833-034109/21/200502/02/2024232111110222024rodriguez.loriann@gmail.com                                                                         
1Terrell        JDibbert             Jr.265 Lisbeth Walks Suite 338                                 Auerchester         VA22091     01/16/193705/22/2024222211110222024carter.sophia@yahoo.com                                                                             
2Lisbeth        MHansen                 265 Marcos Mountain Apt. 172                                Georgannaburgh      PA16500-276606/16/200101/29/2024243111110002024fay.tanisha@kohler.net                                                                              
1F              GMarvin                 2665 Yost Walks                                             Birdtown            AK99780     10/17/197301/22/2024223111112002024abner.baumbach@gmail.com                                                                            
1Tollie          Cartwright             880 Lehner Cliff Suite 925                                  North Arethamouth     85455-758302/15/193103/05/2024223512112022024blake.bashirian@hotmail.com                                                                         
1Elliot          Boyer               Jr.364 Essa View                                               Jordanstad          MO64910-320803/29/195504/08/2024243211112002024swintheiser@group.com                                                                               
1Orion           Blanda              PhD8275 Wunsch Lodge                                           Garthberg           CA91466     03/14/197601/09/2024223511112002024monnie01@kuhlman.net                                                                                
1Estill         ORobel                  467 Schultz Rue                                             New Dimitrihaven      64339     06/28/199802/23/2024213512110202024dkeeling@hotmail.com                                                                                
1Tuan           WFisher                 321 Kunze Courts Suite 859                                  Abshireside         AL35449-862009/19/198508/19/2024243111110202024ynader@lockman.org                                                                                  
1Don            MWard                   193 Little Avenue                                           New Americaville    ND58782     10/16/194608/24/2024241311110002024ferry.edie@walker.org                                                                               
1Humphrey        McClure             Sr.85099 O'Conner Plains Suite 984                             Yosttown            OR16063-132302/09/201807/20/2024212212112202024larson.rudolfo@yahoo.com                                                                            
1Claud          ZHermann                52044 Bogisich Junction Suite 835                           O'Konhaven          AP96462     03/09/199807/25/2024233512110202024susana99@ltd.com                                                                                    
2Bird            Balistreri             615 Alverda Parkways Apt. 697                               Gorczanyport        MD20794-965011/06/198505/31/2024232111110022024mabel00@walter.com                                                                                  
1Ola            OBuckridge           PhD2037 Ofelia Lock                                            New Lindy           DC56925     10/22/197403/07/2024224211112002024lassie67@yahoo.com                                                                                  
1Gerald         HRau                    669 Hauck Hollow                                            Bodeborough         CT06882-229603/04/194602/19/2024242512112202024hsauer@hackett.net                                                                                  
1Lyle3          SMacejkovic             891 Giovanny Avenue                                         Port Shanafort      ME03995     01/15/194302/18/2024211112110202024hettie11@crona.com                                                                                  
1Clide           Ryan                   600 Coleen Mill                                             Florineview         CA90570-682406/26/193302/26/2024233112112202024claudette.waelchi@yahoo.com                                                                         
1Lowell          Rau                 Jr.606 Ryan Hills Apt. 121                                     North Sindamouth    PA17322-040705/15/199306/25/2024200000000022024roe44@conroy.com                                                                                    
1Derrell        UCronin                 01509 Altenwerth Fields                                     West Jesse          MN56320-584709/01/197404/27/2024241211110202024mstrosin@hotmail.com                                                                                
1Michial        ISatterfield            104 Gusikowski Meadows Suite 098                            New Laviniastad     CA93285     08/15/196603/28/2024234311112222024bogan.jeanie@hotmail.com                                                                            
2Lilyan         KBatz                   59469 Iona Light Apt. 838                                   South Leoraside     IA52510-783104/25/201306/25/2024232312112002024lueilwitz.nikolas@plc.org                                                                           
1Alfonse        WKonopelski             90217 Elden Street                                          Parkerhaven         FL34742     12/25/193404/09/2024224112110022024kborer@hotmail.com                                                                                  
1Baker          AGottlieb            DDS7740 Cummerata Valleys                                      North Rafe          VA23598-874603/09/200907/20/2024222211110202024haltenwerth@inc.com                                                                                 
1Archie          Sporer              DDS5709 Purdy Fords Apt. 812                                   Jericafurt          GA39802     04/09/196102/01/2024242511112202024kuhn.shemar@hotmail.com                                                                             
1Colie          BHarris                 0406 Williamson Streets                                     New Claudiemouth    NY14944     09/13/194202/18/2024231112110002024tschiller@llc.com                                                                                   
1Simon           Kuhlman                2169 Medhurst Oval Apt. 755                                 South Dee           MT59574-552911/08/199402/25/2024221111112222024shayna25@hotmail.com                                                                                
1Jordy          LThompson            Jr.67712 Stehr Coves Suite 172                                 North Tal           NJ18808     11/26/195303/29/2024200000000222024susann.morar@hotmail.com                                                                            
1Edgar          HBlanda                 212 Essex Spring Apt. 219                                   Schusterborough     OK74757     09/03/193101/03/2024244112110222024goldner.christoper@yahoo.com                                                                        
1Javon           Gislason            DDS124 Schuppe Point                                           East Toriano        CA93772     09/27/193609/01/2024221312112222024ryan.jude@hotmail.com                                                                               
1Brandan        PCorkery                446 Justice Lights Apt. 798                                 North Karolyn       IA50720-070710/16/194101/17/2024223212110022024lane51@johnston.com                                                                                 
1Bunk            Koepp               Sr.02015 Captain Branch                                        Koeppshire          AL36235-086412/11/198509/04/2024232311112202024alabadie@inc.com                                                                                    
1Refugio        YWatsica                1104 Octavius Motorway Apt. 397                             West Merrilyport    NJ08465-275709/08/196701/09/2024212512112292024kspinka@hotmail.com                                                                                 
1Merritt         Cruickshank            0809 Salvador Parks Suite 902                               Port Brindafurt     TX79777-678707/18/196402/17/2024211312112202024howell.winona@gmail.com                                                                             
1Hobert         RHansen                 720 Rippin Route                                            Eleanoraburgh       TX75646-821204/09/200201/18/2024221112110222024nmckenzie@gmail.com                                                                                 
1Antione        MRau                    5581 Ullrich Pine Apt. 239                                  New Illyamouth      NJ27471-015805/03/193805/24/2024234111110202024carmen09@gmail.com                                                                                  
2Sierra         CKoepp                  44952 Christina Port                                        Arvoport            OK73899-803704/14/197004/24/2024214511110022024raynor.jayleen@group.org                                                                            
1Nelson          Wyman                  94746 Baumbach Loaf                                         New Tinnieton       AL36026-439911/16/201501/05/2024242311110002024davonta.schimmel@yahoo.com                                                                          
1Broderick       Gleason             Sr.400 Prohaska Inlet                                          West Caren          OR97966     04/26/197901/25/2024213212112222024karen.cormier@berge.org                                                                             
1Larkin         HShields             DVM41991 Walter Freeway Suite 446                              Lake Hailee         NC28616-891601/04/197601/26/2024243112110002024narcissus47@goodwin.com                                                                             
1Jimmie         OLehner              DVM90642 Brakus Pike                                           McDermottstad       WV24824     11/15/201903/14/2024211512110202024blaze.white@bradtke.com                                                                             
1Harvie         HOlson                  7876 Floyd Greens Apt. 837                                  South Bertramside   MD21077-075707/03/196602/14/2024200000000222024maya.jacobi@white.com                                                                               
1Boss            Gleason-Gislason       357 Emilie Spring                                           Port Addisonview    TX77600     08/26/198906/21/2024224512112022024latoya.kiehn@group.com                                                                              
1Desi            Wehner                 64947 Barton Stream                                         West Argie          IN47510-256804/09/196405/14/2024223311110202024fay.rena@gmail.com                                                                                  
1Agustin        ALedner              Jr.261 Jeramy Throughway                                       McGlynnville        KS67411     03/01/195702/28/2024243211110202024wolff.modena@ltd.info                                                                               
1Everet         FSchinner            DVM95476 Yael Dam                                              Port Raheemtown     VT05775-599906/05/197706/12/2024241212112222024dschinner@lang.com                                                                                  
1Javion         RWill                Sr.9822 Frami Fork Apt. 140                                    Port Glennis        AL36227-179011/24/194203/18/2024224111110202024infant.aufderhar@hotmail.com                                                                        
1Kaiden         OHessel              DVM7680 Rosey Station                                          Hampfort            AP96348-784609/24/198904/22/2024214212110002024saundra65@yahoo.com                                                                                 
1Clarnce        BWalsh               DVM9187 Heller Wells Apt. 655                                  Sergiotown          PA17895-694003/15/194007/09/2024233511112022024shepherd.abshire@hotmail.com                                                                        
1Terrill        XLehner              MD 65552 Carin Bypass Suite 768                                Lake Kameronchester NV89151     05/24/193503/27/2024234311112222024zziemann@gmail.com                                                                                  
1Trevon         CGaylord             MD 2099 Lueilwitz Summit                                       Lake Newtfurt       KS66836     04/22/197501/02/2024214311112022024ndaugherty@armstrong.net                                                                            
1Lott            Gibson              DVM5889 Buckridge Plaza                                        Lake Arlastad       PA17819     10/04/201201/31/2024213311110002024brayden.welch@ltd.net                                                                               
1Tilden          Wisozk              DDS004 Mills Camp                                              Rodrigochester      WV26270     11/18/200105/22/2024224212110202024nevaeh12@sanford.com                                                                                
1Garfield       SHeller              Jr.486 Heaney Drives Suite 490                                 South Caro          TX78221-608603/12/193103/09/2024221311112202024anner91@yahoo.com                                                                                   
1Richmond        Schinner               PO BOX 35                                                   Bashirianberg         74275-743305/11/200202/09/2024234211112022024schimmel.shanell@yahoo.com                                                                          
1Marlon         ZWyman                  938 Lalla Views Apt. 545                                    Reinatown           NM87374-868401/14/199806/01/2024221512110002024flatley.arlena@hotmail.com                                                                          
2Oda-Lonie       Hoppe                  761 Bunk Overpass Apt. 997                                  East Armani         NY11339-689210/29/200002/27/2024200000000022024miller.tracy@reichel.info                                                                           
1Worley         WBins                MD 01806 Hansen Meadow                                         Coreyside           MA02555     11/22/193507/03/2024243311112002024xdurgan@hahn.com                                                                                    
1Burnie         HTurcotte               43267 Stroman Dam Apt. 117                                  Lake Barnettbury    IN47621     07/05/199104/22/2024243511110022024dessie.senger@group.com                                                                             
1Harland         McLaughlin          DVM70257 Celia Summit                                          New Emalineville    MT59353-470609/25/195707/02/2024234212110002024martez53@gmail.com                                                                                  
2J              WLabadie                795 King Brook Suite 870                                    Halseyburgh         VA24143-656004/07/201002/15/2024244111110002024ariella22@rowe.com                                                                                  
1Durward        ZKuhlman                1220 Cohen Bypass                                           Kertzmannfort       MD20973     12/18/194908/19/2024200000000022024zgaylord@yahoo.com                                                                                  
1Cap            VHauck                  54954 Lesley Curve                                          Hahnchester         WA98967-815012/14/197205/24/2024224111112222024heller.marybeth@yahoo.com                                                                           
1Patric         CSchmitt                3483 Price Mount                                            Thielhaven          PA19636     12/09/194104/18/2024241112112202024dulcie95@hudson.com                                                                                 
1Duff-Horton    TSchiller            Sr.1216 Alyson Estates Apt. 865                                Hesselfurt          CO77765-854301/01/195602/20/2024212511110022024cedric.hilll@gmail.com                                                                              
1Ivor           NZieme                  107 Zoey Station Apt. 226                                   South Alondra       GA31384-253906/18/193101/16/2024224112112002024donnelly.cecile@plc.com                                                                             
1Esequiel        Hyatt                  8728 Runolfsdottir Camp Suite 137                           South Bernadette    WV25443     05/29/194601/11/2024231512112022024ayaan85@monahan.com                                                                                 
1Antoine        KCrist               Jr.4991 Permelia Center                                        West Rosyhaven      LA70573     01/06/200505/17/2024234511110202024do'connell@hotmail.com                                                                              
1Harrie          Weissnat            Jr.524 Caren Underpass                                         East Chip           NY12241     04/21/201208/11/2024214112112002024rollie.wolf@plc.biz                                                                                 
1Jabbar         DLebsack                48856 Weber Square                                          West Williamview    NV97927     09/27/198501/15/2024221211112202024adrien.roob@group.info                                                                              
1Lawerence-Epifa Wyman               MD 337 Shanahan Inlet                                          North Erlene        TX77838     12/15/196904/26/2024243512110002024madison46@llc.com                                                                                   
1Hunter         HFriesen Hahn           72141 Erich Wells                                           Amiyahfort          TX78351-808104/16/197408/23/2024242111112222024cchamplin@hotmail.com                                                                               
1Jammie-Dana     Jacobi                 8374 Eleanor Ports                                          New Cijistad        TN38494-033204/19/199706/28/2024213511110022024wiliam.von@hotmail.com                                                                              
1Gail           OMayert Hodkiewicz   DDS927 Aufderhar Turnpike                                      Vonberg               73223     02/20/199502/19/2024222511110002024schmitt.gwen@yahoo.com                                                                              
1Kamryn         ERomaguera              09059 Keshaun Green Apt. 106                                Joslynberg          PA18647-654608/28/197607/06/2024224512112222024nstreich@yahoo.com                                                                                  
1Madden         DBrakus              PhD862 Scarlet Junctions Suite 902                             Clidehaven          NY11250     09/07/193206/29/2024241512112222024stoltenberg.quincy@yahoo.com                                                                        
1Dedric         MMayert                 50447 Senora Ridges                                         East Dukeview       TX76182     12/26/199101/11/2024223211110202024raul.okuneva@ltd.com                                                                                
1Dewitt         AE                   Jr.90624 Kshlerin Cape Apt. 984                                South Lilyborough   MI49643     11/05/196903/07/2024241212110202024ovandervort@yahoo.com                                                                               
1Messiah        ISchaefer            Sr.33308 Skyler Pines Apt. 151                                 New Jones             86699     11/17/201705/14/2024242211110022024larson.jenniffer@paucek.net                                                                         
1Dave           PPredovic            DVM622 Robbin Walk Suite 672                                   Lake Alondraton     CA95860     08/30/195803/11/2024200000000022024fannye.weissnat@howell.biz                                                                          
1Omarion         Kovacek             MD 500 Larson Track                                            Darryhaven          AZ85713-951808/23/196504/20/2024231311110222024gillian.mccullough@ondricka.com                                                                     
1Manly           Thompson               46038 Tiana Groves                                          Port Trippton       WA99481-306607/26/195504/21/2024232112112002024pacocha.sanaa@yahoo.com                                                                             
1Benjaman        Hermiston           DDS1326 Sammie Via Apt. 439                                    New Kelli           TX75749-006908/01/194508/21/2024232212112022024bonnie.zulauf@dickens.org                                                                           
 Reinaldo       WLakin               MD 63213 Haley Ville Apt. 508                                  Ratketon            IN46921-527105/24/200007/16/2024200000000002024americo09@beer.info                                                                                 
1Thurston       JMertz               Sr.97379 Gilbert Mount Suite 371                               South Rickey        CA94599     10/29/199204/06/2024200000002022024elmira46@rau.com                                                                                    
1Shelby         DHartmann            Jr.639 Hammes Ways                                             North Durellshire   CO81695     08/23/194506/09/2024233511112022024bfranecki@d'amore.com                                                                               
1Enrico         ZAuer                   14180 Crooks Mews                                           Maribethville       AZ85101     12/03/197704/07/2024223112112222024xmaggio@gmail.com                                                                                   
1Diamond        BKertzmann           DVM9806 Ledner Pike Suite 267                                  Borerchester        NJ08150-839401/28/196808/07/2024221311110022024bruce70@harvey.com                                                                                  
2Brianna         Feeney                 62716 Angelo Route                                          North Hildegarde      41950-446310/09/198406/24/2024231512110002024rath.melva@labadie.com                                                                              
1Melton          Lang                   945 Collins Coves                                           Lake Oddiefurt      AK99914-383010/15/194007/31/2024233112110222024morissette.emiliano@gmail.com                                                                       
1Arlan          CBednar              MD 51828 Dayle Coves Apt. 659                                  Lavondaberg         KY42629     03/02/201407/25/2024200000000022024xstracke@hotmail.com                                                                                
2Nicolle        BKub                    1522 Maegan Summit Suite 792                                East Alvenaside     AL32601-980005/25/200205/04/2024221111110022024jamir35@pfeffer.com                                                                                 
1Rylan          YHarber                 09086 Celestino Mount                                       Jenkinsland         ND58102-799409/21/196505/06/2024200000000022024strosin.carter@yahoo.com                                                                            
1Harper         XTrantow                57466 Zaida Cliffs Suite 533                                North Irenachester  KY42457     09/01/194908/02/2024213512112222024dwillms@and.com                                                                                     
1Zeb            R                       28309 Barney Bypass Suite 949                               Lake Aldonaton      PA17618-576601/28/193903/09/2024242512112002024ethie.brekke@gmail.com                                                                              
2Brisa Nyree     Heathcote              8672 Dema Summit                                            Dakotafort          WY82784-363002/05/199406/30/2024213111110022024india.witting@fay.com                                                                               
1Melville       ALubowitz               823 Rolf Villages Suite 059                                 Lehnerville         TN37855     04/28/193803/09/2024212311112022024vikki31@yahoo.com                                                                                   
2Ida            AHauck                  709 Maddox Hills                                            Pollichview         TN37309     04/01/195205/24/2024200000000022024phackett@hudson.org                                                                                 
1Duke            Jerde               MD 12744 Koss Creek Apt. 151                                   Kassulkeborough     TX79915     09/07/199106/21/2024242311110022024stoltenberg.mylee@hotmail.com                                                                       
1Irvine          Champlin               3944 Schaefer Bridge Suite 107                              Port Samuelchester  PA18370-026104/28/198301/31/2024234312112022024zackary40@ratke.org                                                                                 
1Victoriano      O'Hara                 22529 Melody Square                                         Homenickville       IL60382     12/19/199605/16/2024224112112222024isla.doyle@gmail.com                                                                                
1Junious        XVon                 II 21605 Konopelski Junction                                   Saraiborough        TX79122     10/30/199108/13/2024213112112002024hermiston.mathew@hotmail.com                                                                        
1Kamron         QBechtelar           Jr.8326 Isla Center                                            East Larry          GA30072-538312/02/197907/08/2024214512110202024gnolan@quitzon.com                                                                                  
2Darleen        ABosco                  46789 Ham Square Suite 895                                  Prosaccomouth       MD20988-631010/02/197702/03/2024232512112202024zandra19@grady.com                                                                                  
1Trayvon        WStreich             Sr.7669 Edison Flats Suite 462                                 Port Twilashire     FL33846     12/29/201905/24/2024221212112002024lkoepp@hotmail.com                                                                                  
1Carmel          Larkin              MD 673 Judyth Circles                                          South Tressie       GA31604-635910/01/199705/27/2024222511110202024fnicolas@gmail.com                                                                                  
2Aura            Mosciski               5441 Haag Gardens                                           Millerbury          KY40195-728210/15/197105/16/2024211111112002024richie24@schumm.biz                                                                                 
1Kolten         LTillman                9118 Naima Burgs                                            Daronchester        TX77554     08/11/198007/15/2024212311110202024tahj.kuphal@marks.com                                                                               
1Santino        LWest                DDS4588 Boyer Motorway Suite 009                               Port Neal           NY13593     01/06/197007/03/2024234311112022024jocelyn89@schaden.com                                                                               
1Godfrey        NSpinka              DDS145 Ari Corners                                             New Pearliebury     NJ07923     08/14/196304/05/2024222111110202024danny03@llc.com                                                                                     
1Grady          FDavis                  4656 Beahan Pine                                            Letaland            AL35856     05/31/198808/01/2024232512110222024dorris69@hermann.com                                                                                
1Julian          Windler             DDS304 McGlynn Parks Apt. 877                                  South MarguerittefurCO43511     02/09/194807/31/2024211311112022024hamilton.howell@rippin.com                                                                          
1Gunnar         HLeffler             DVM170 Hirthe Extension Apt. 923                               Gleichnerbury       ME04994-098405/04/199804/25/2024241312112002024szulauf@yahoo.com                                                                                   
1Deon           FBorer                  84985 Schmidt Loop                                          East Cliffie          70222     12/10/200504/01/2024200000000022024vinton49@yahoo.com                                                                                  
1Pershing       YKuhn                   74720 Gianna Junctions Suite 094                            West Cassie         NY11216-173204/14/195804/16/2024211312110222024ycasper@schuppe.com                                                                                 
1Handy          ECartwright             304 Swaniawski Inlet Suite 099                              Port Crissieport    OH44350     05/20/202205/31/2024213511110222024muller.payton@gmail.com                                                                             
1Horace         VLittle              Jr.16747 Goldner Estates                                       Londonport          CA92756-961412/05/202003/26/2024243511112222024murphy.debby@hotmail.com                                                                            
1Keegan          Connelly            PhD1780 Mitchell Dam                                           Hahnstad            NV23302     09/10/200103/08/2024234212110022024colleen36@kessler.net                                                                               
1Kason          JEichmann               879 Hamill Hill Suite 657                                   Ebertland           NV88933     03/07/197007/01/2024243212112002024uswaniawski@gmail.com                                                                               
1Kiefer         GMcClure                4084 Marylou Mount                                          Kaneshaborough      AL47391-480502/14/198904/06/2024200000000002024emard.conor@hettinger.com                                                                           
1Erle           NEffertz                384 Alcie Fords                                             Darrenhaven         IL61715-634104/10/196001/18/2024231212110202024mathews08@huels.org                                                                                 
1Hansel         XAltenwerth          DDS483 Hegmann Camp Apt. 279                                   Zulaside            CT06965     11/29/194801/08/2024243511110202024elva.kuhlman@zieme.biz                                                                              
1Sylvan          Kuhlman             DDS04516 Stephani Overpass Suite 518                           North Ross            86759     10/16/195008/06/2024222111110222024dabney40@group.biz                                                                                  
1Willard         Dach                DDS8342 Carter Trafficway                                      South Eugeniaview   SC29581-476009/20/201408/19/2024221211110222024katia.lind@parker.biz                                                                               
1Merlyn         ZGrady               Sr.346 Rau Causeway                                            West Pearle         WV25848     01/25/201108/29/2024231111110022024jerrod62@gmail.com                                                                                  
1Ethen          MShields                747 Roberts Plain                                           Johnsonside         MS72399-824110/19/202205/11/2024222511110202024noel93@gmail.com                                                                                    
1Kenan           Weimann                6942 Octavie Prairie Suite 687                              Croninside          MD21646     01/09/196308/08/2024200000000022024stevan25@gmail.com                                                                                  
1Jameel         RHahn                Sr.86201 Simona Rapid Suite 664                                Leuschkechester     GA30725     09/05/195801/01/2024223211110022024verl.borer@stiedemann.com                                                                           
1Ronan           Rutherford             1369 Schimmel Knoll                                         East Erlingbury     NM88063-379508/03/196306/12/2024200000000022024xkoepp@gmail.com                                                                                    
1Jerrad         THodkiewicz             044 Nigel Centers                                           Stefanhaven         IN46534-499506/22/200102/22/2024212512110002024d'amore.nehemiah@llc.org                                                                            
1Algernon       JLeuschke            Jr.38282 Marquardt Points Apt. 742                             Shalonshire         CA90219-406611/06/201203/28/2024200000000222024marlo.roberts@gmail.com                                                                             
2Dotty          DSchumm                 27232 Irvine Overpass Suite 927                             Michaelamouth       TX76245-467901/11/195808/18/2024232112110202024hall.hackett@goodwin.net                                                                            
1Dillard        HHauck                  P.O. BOX 211                                                Lailahtown          PA18072     09/17/197403/10/2024221512112002024lesch.stephania@heathcote.com                                                                       
1Erick           Ruecker-Quigley     DDS07890 Reichert Center Apt. 526                              East Britt          NY11100-236001/05/201102/15/2024242312110222024o'reilly.brinley@konopelski.info                                                                    
1Hoover          Kulas               DVM280 Tamatha Junction                                        West Marni          AR72409-705905/30/194406/05/2024231512112202024stevie.green@gmail.com                                                                              
1Clovis         HPowlowski              99994 Dickens Mountains Suite 885                           New Shanon          TN37589     06/19/202108/28/2024221312112002024shawnte.kuphal@upton.net                                                                            
1Marcelino      PSchamberger            09395 Maximus Park                                          Chandlerfurt        IL62669-952001/21/200903/27/2024200000000222024hadassah75@and.net                                                                                  
1Eugene         ULeuschke Lowe       MD 256 Littel Parks Suite 785                                  North Shirlene      SD57305-617308/10/194902/01/2024211211110222024daphne36@volkman.info                                                                               
1Wardell        RTrantow                401 Sannie Via Suite 726                                    Hellerberg          IL13621-782008/20/201003/13/2024200000000022024bailey10@gmail.com                                                                                  
1Brayden        VWeissnat            DDS2552 Hackett Drive                                          Feilside            CA93059-897609/21/197605/03/2024244311112222024kreiger.deric@volkman.com                                                                           
1Jered           Sawayn                 53921 Luettgen Green                                        West Bradford       GA92366-053811/06/193903/11/2024241511110022024judith.o'connell@gmail.com                                                                          
1Clemon         CNolan               PhD49260 Emeline Knolls                                        Aleckburgh          WV24714-960306/27/195904/01/2024243311110202024rice.noah@hotmail.com                                                                               
1Davin          XSmith                  68458 Rogers Light Apt. 361                                 Lake Doshie         PA15113-280307/24/193003/09/2024214212110202024stewart19@hotmail.com                                                                               
1Trevin          Ondricka            MD 399 Gayle Vista                                             Camburgh            OK74601     10/08/193208/21/2024221211110022024greg74@gmail.com                                                                                    
 Anson          REmard                  647 Jacqulyn River                                          Port Patty          PA17704-682107/10/193905/27/2024200000002002024jaskolski.cristin@johns.com                                                                         
1Dandre          Moen                MD 67623 Bette Freeway Suite 936                               Port Britany        IN46599     07/31/198707/26/2024242512112222024weldon.schneider@group.com                                                                          
1Jonnie         EUpton                  267 Wilderman Extensions Suite 462                          Tamiaburgh          DE19812     03/22/200602/17/2024223212110222024whitney51@rogahn.com                                                                                
1Davy           FDaniel              PhD82895 Marita Place                                          Leahbury            WY82084     04/04/197302/06/2024232311112222024corwin.idell@yahoo.com                                                                              
1Yancy           Lueilwitz              2884 Mueller Rapids Apt. 924                                New Dewardtown      MD21925     05/16/196303/11/2024244312110002024vandervort.nell@price.info                                                                          
1Odin           QRunte                  00323 Jannie Ramp                                           Leotahaven          TN49181-172105/31/200407/22/2024243511112202024hessel.mirtie@gmail.com                                                                             
1Mohammad       HPagac               MD 4760 Dickens Trail                                          Caitlintown         TX77606     07/18/201606/05/2024221312112222024tyson39@gmail.com                                                                                   
2Alba Dellie    ZCollins                3810 Ethen Village                                          West Camilostad     WY19877     01/31/198102/21/2024221311110002024jaskolski.ronny@and.biz                                                                             
1Garfield       SHeller              Jr.486 Heaney Drives Suite 490                                 South Caro          TX78221-608603/12/193103/09/2024221311112202024anner91@yahoo.com                                                                                   
1Sean           DMcClure             MD 5245 Shields Roads                                          Rempelburgh         MO63379-250205/18/193206/18/2024214112112222024britton69@yahoo.com                                                                                 
1Russell        JStanton             MD 00968 Toya Fort Apt. 440                                    Rickieside          OK85655-948110/13/195405/22/2024211511112202024rolfson.nallely@group.info                                                                          
