1Hank            Ortiz                  75636 Caden Ramp Suite 896                                  Pauloburgh          KY41284-346605/07/200601/21/2025224531200002024runte.cedrick@kovacek.com                                                                           
1Ismael         AJohnson                75625 Brandyn Track                                         Demetriashire       WY82426     01/06/197611/23/2024224312200002024rahsaan76@boyer.com                                                                                 
1Cicero-Roderic  Christiansen           6199 Goyette Track                                          South Nora          CA94268     12/16/201611/08/2024222232200002024cbraun@gmail.com                                                                                    
1Edward          Zemlak              V  6386 Schuppe Greens                                         North Lindenville   WV24814-205106/10/202003/01/2025241251200002024lenore16@hotmail.com                                                                                
1Carrol         JJohnson                958 Jessie Views                                            Ediefurt            WI54488-722612/29/197010/26/2024244352100002024ocummings@torphy.com                                                                                
1Zakary          Bartoletti          V  99705 Stehr Glens Suite 502                                 New Marina          NV89117-883610/23/194803/29/2025200000000002024sanjuanita.turner@murray.com                                                                        
1Deegan          Hilll                  08851 Funk Lake Suite 207                                   Watsicamouth        CA91027-410510/10/196311/26/2024231552200002024dustyn23@yahoo.com                                                                                  
1Vicente        AHudson              V  508 Mearl Brook                                             Faystad             MD42137     09/28/196109/15/2024222512100002024brekke.branch@yahoo.com                                                                             
1Shelby         WLubowitz Nolan         92664 Antonina Rest Apt. 713                                Haywoodside         NY10542     08/12/196708/23/2024243131100002024bhyatt@hotmail.com                                                                                  
2Lucero         DTillman                96320 Kash Walks                                            Abbotthaven         CA94554-774602/02/197212/14/2024234321200002024cremin.kami@mosciski.com                                                                            
1Jones           Bins                   9373 Balistreri Park                                        New Juniafurt         81887     10/15/200708/01/2024223522200002024cara.stiedemann@yahoo.com                                                                           
1Unknown        QWintheiser             38001 Spencer Crest                                         Reichertbury        MA01188-691711/09/199610/22/2024231332100002024thand@kohler.com                                                                                    
1Sonny          PStroman                6875 Bednar Corners Apt. 181                                Harrisstad          SC29239     12/11/194710/30/2024211552100002024gibson.tisa@ltd.info                                                                                
1Demario         Kreiger             I  88980 Haley Manor                                           West Jovanshire     FL33213-290812/16/196107/06/2024222311200002024abbott.jorge@yahoo.com                                                                              
1Gilmore        NHeathcote              1935 Kendrick Skyway                                        Fumikohaven         NY12786-054211/19/197609/05/2024241231100002024heathcote.ophelia@yahoo.com                                                                         
2Lissette       KHudson                 0823 Littel Road                                            South Javon         NJ08864     07/16/200503/01/2025211512200002024gdickinson@greenholt.com                                                                            
1Hyrum           Langosh                719 Wiley Underpass                                         New Sherwood        FL32096-227703/10/202003/07/2025221551200002024NA@GOV.COM                                                                                          
2Bessie         ZGerhold                192 Dulcie Course                                           Kihnstad            VA22789     05/10/199802/17/2025244112100002024rian45@sipes.biz                                                                                    
1Martez         THoppe                  4619 Yajaira Point                                          Roweport            CO80195     09/23/198809/29/2024233311200002024thor69@hotmail.com                                                                                  
1Refugio         Ondricka               725 Steward Extension Apt. 832                              Georgannafort       SC29640     01/29/198812/01/2024223552200002024tschultz@yahoo.com                                                                                  
2Alvira Evelyn  EGerhold                183 Zenobia Alley                                           McKenzieberg        CO80956     07/22/201211/22/2024232312100002024berneice.gleichner@yahoo.com                                                                        
1Rogers         RD'Amore                10703 Breitenberg Meadow                                    North Tucker        FL32465-729308/27/202112/06/2024243332200002024darleen.harris@yahoo.com                                                                            
1Arlington      NSchaefer               63240 Barry Avenue Apt. 920                                 Jeromychester       WI54584     05/29/202012/13/2024224251200002024phickle@gmail.com                                                                                   
1Gordon         KRau                    1486 Toccara Lock                                           Weberchester        KY92643-493111/13/200607/23/2024214532200002024captain57@hotmail.com                                                                               
2Elvira         YGerlach                7154 Arnoldo Circle Apt. 333                                South Dorisbury     SC29415-584905/17/199210/01/2024222232100002024harber.alondra@wilderman.com                                                                        
1Burton          Mann                   336 Caryl Club                                              East Raechester       87240     09/10/199508/15/2024242531200002024akautzer@hotmail.com                                                                                
1Darell         UParisian               7047 Dickinson Shoal Apt. 239                               Caseyview           CO81517     10/31/195402/05/2025214111200002024river.pouros@hotmail.com                                                                            
1Jared          UBayer                  6333 Buster Inlet                                           West Grisel         AZ67970     09/19/198201/14/2025224232200002024tstiedemann@doyle.info                                                                              
1Horatio        XGusikowski             4956 Nicolas Landing Apt. 918                               Chaunceyview        VA22475-462809/06/197911/27/2024214322100002024bethann50@dietrich.com                                                                              
1Adlai           Aufderhar              7683 Franecki Forge                                         New Margaretta      WI54207-734707/07/199008/16/2024222352100002024efren94@wintheiser.com                                                                              
2Macey          OSchumm                 968 Willia Flats                                            North Unique        WV26158     12/19/197401/31/2025224312100002024emerson.schumm@llc.com                                                                              
1Alton          BKuhlman                68944 Grady Cove Apt. 969                                   Aliciaberg          KY41857     05/27/201208/04/2024211332100002024beahan.ezra@hotmail.com                                                                             
2Arlena         GSchaden                56126 Meryl Junctions                                       North Parker        VA24421     02/05/197707/16/2024231332100002024kassulke.vonnie@hotmail.com                                                                         
1Nicky           Becker                 14005 Minoru Locks                                          Armstrongberg       PA16670-484708/19/198508/21/2024224231100002024emacejkovic@and.com                                                                                 
1Nicolas         Braun                  7445 Hall Spur Suite 262                                    New Luverneborough  NY13195     03/21/193012/17/2024241511100002024edythe.bins@ltd.org                                                                                 
1Edd            UPagac                  0537 Hessel Plaza Suite 253                                 East Symoneport     PA18001-168010/24/197202/05/2025214232200002024oharris@group.com                                                                                   
2Dannielle      OWitting                331 Miller Way Apt. 619                                     Ankundingfurt       MN56523     03/24/195410/22/2024224312100002024sauer.darian@yahoo.com                                                                              
1Derrick         Kuhlman             I  308 Jennie Grove Suite 895                                  Bauchstad           GA31890     01/28/199110/18/2024233352200002024toshiko.nader@hotmail.com                                                                           
1Carson          Nienow                 85350 Kerri Hill                                            Hilaryland          PA19525-867706/24/194403/28/2025241121100002024sasha73@inc.com                                                                                     
1Arden           Upton                  6791 Gulgowski Estates                                      Rodriguezburgh      CA92324-322105/09/198211/20/2024243212200002024veta48@gmail.com                                                                                    
2Vanesa         PQuigley                15425 Koss Causeway                                         South Skye          NJ08940     07/04/200308/14/2024231112200002024ebalistreri@hotmail.com                                                                             
2Tiney          UWindler                73281 Evelin Avenue Apt. 443                                Lake Scottfurt      CA92375     09/10/198512/19/2024212211200002024bartell.westley@turcotte.info                                                                       
1Burton         OGreenfelder            2178 Keeling Station                                        North Ardelle       AE09228-587404/12/201408/28/2024211212100002024avis.reichert@yahoo.com                                                                             
1Mat            IKeebler                86617 Breanna Spring Apt. 714                               Connerburgh         MI26715-272301/20/198507/31/2024234211100002024levon.roberts@gmail.com                                                                             
1Zenas          UCormier Dooley         1770 Brittny Meadows Apt. 202                               Ephriammouth        TN37423-296104/07/198612/10/2024244111200002024moen.isabella@hotmail.com                                                                           
1Everet         BWalsh                  08935 Hills Parks Suite 789                                 Lake Adelleview     CA92666-610811/29/201401/10/2025243352200002024rocco84@yahoo.com                                                                                   
1Corry          JBlock                  60679 Hyatt Cliffs                                          North Vicky         OK74399     03/26/198103/30/2025212351200002024karlene68@gmail.com                                                                                 
1Lars           ZPfannerstill           237 Michaele Tunnel Apt. 782                                Leanabury           MD21748     03/27/199301/20/2025224552100002024kayli.lind@hickle.info                                                                              
1Casimiro       TCrona                  277 Moen Divide                                             New Ogden           FL32941-642901/13/193808/26/2024223352100002024kailey97@hotmail.com                                                                                
1Eston          GHoeger                 744 Kaleena Rest Suite 277                                  North Glenna        TX02760-232006/05/195010/22/2024241532100002024emma97@and.com                                                                                      
1Layton         YKunze                  450 Lehner Islands Suite 028                                Runolfsdottirville  MS66298-392804/03/195610/01/2024212332100002024jayce.zieme@yahoo.com                                                                               
2Byrdie         BGislason               061 Darien Crossing Suite 715                               Rosamondton         CA94814     12/27/195510/13/2024222522100002024glenna.berge@hotmail.com                                                                            
1Eliezer         Carroll Prohaska       0188 Arizona Summit                                         Homenickchester     ND58215-638809/19/197911/29/2024211252200002024mills.joella@yahoo.com                                                                              
1Braxton        SKihn                   69297 Shaquita Station                                      New Ham             WV25412-709003/19/196401/28/2025232121100002024hazel43@hotmail.com                                                                                 
1Everett        YThiel                  28882 Nikolaus Passage                                      Port Kenny          AE09184     03/02/194610/26/2024212351200002024hammes.elam@kuhlman.com                                                                             
1Cody           QDach                   4422 Bayer Manor Suite 471                                  Westleyland         NJ84313     01/21/199508/12/2024224231100002024friesen.alexander@ferry.com                                                                         
1Ogden          TFriesen                99686 Williamson Wall Suite 192                             East Bjorn          DC20358     08/29/197207/04/2024223111200002024jan.emard@macejkovic.net                                                                            
1Doss           HPfeffer                47059 Bonita Ports Suite 983                                New Shavonne        WY82589-863301/22/193908/14/2024211112200002024jmills@yahoo.com                                                                                    
1Effie           Sporer                 3722 Merrilee Walks                                         New Hallfort        CA90823-471601/24/193503/01/2025231552200002024aimee63@plc.com                                                                                     
1Hjalmar        WStamm                  386 Kris Shoals Suite 676                                   East Ionaview       WV25767     03/13/198411/09/2024231221100002024allean.ankunding@kessler.com                                                                        
1Owen           BBoehm                  123 Farrell Corners                                         South Aileenview      42876     02/16/198402/16/2025214521100002024hirthe.leopold@beier.com                                                                            
 Bart           PDeckow              V  49676 Will Coves                                            Coleport            WY82528-927807/14/198011/20/2024211522100002024cjast@plc.org                                                                                       
1Holmes         ZBauch                  45240 Albertina Brook                                       Lake Katlin         GA30864-245712/03/201302/08/2025212322200002024NM204@GMAIL.ORG                                                                                     
1Jaleel          Bechtelar              1280 Ortiz Hills Apt. 033                                   Marylouiseton       MN56541     12/20/198507/28/2024233131200002024igreenholt@glover.org                                                                               
1Justin         ZWindler                38316 Bechtelar Parkways                                    Port Brantley       TN79811-720705/16/200107/31/2024242552200002024nichelle.bernier@ltd.com                                                                            
1Duke            Hoppe                  352 Bergstrom Fork                                          East Kendalfurt       53319-748809/23/200109/12/2024211352100002024kautzer.hiram@gmail.com                                                                             
1Nathaniel      CPfeffer                33206 Elvia Spur Apt. 256                                   South Melodiehaven  NV89435     11/29/194312/01/2024213322100002024dion36@kreiger.info                                                                                 
1Waldo                                  6092 Moen Fall Suite 321                                    Lake Hakimstad        69761     01/13/194001/14/2025224522200002024jbahringer@hotmail.com                                                                              
1Brandan         Wehner                 10794 Fount Spring Apt. 520                                 North Magdalenebury KS93265-003907/31/202403/18/2025211231200002024armin.carroll@weimann.com                                                                           
1Winston        XStracke             I  0094 Demetric Corners Suite 239                             Janetteland           71517     10/24/195211/15/2024221332200002024senger.dock@gmail.com                                                                               
1Felton         DSporer.                56799 Schmitt Crossing Suite 340                            Emardside           WV25098-095212/23/200109/20/2024231252100002024daisy.stamm@bode.info                                                                               
1Stan           QKuhic               I  4030 Russel Estate Suite 417                                Vondaland           OH44977-265505/08/196808/22/2024222512100002024zcassin@yahoo.com                                                                                   
1Ross           GRussel                 50997 Frami Branch                                          Abelchester         PA16604     03/12/193103/13/2025224152100002024cleola18@group.org                                                                                  
2Randi          OGoldner                7192 Cremin Junction Suite 575                              Santinoshire        NY11730-059007/03/201307/20/2024243252100002024kling.charlee@prosacco.biz                                                                          
1Danniel        ZPredovic            I  374 Cummings Ford Suite 036                                 Gilfordberg         TX75715     01/01/202407/31/2024244132200002024klocko.esta@yahoo.com                                                                               
1Loney          MBrekke.                281 Jerde Spurs Apt. 429                                    Jimmieburgh         KS10448-298003/13/200701/05/2025112112100002024racquel70@larkin.com                                                                                
2Kitty          OGreenfelder            0749 Chaya Forges                                           Smithburgh          MD21018-904902/23/195912/27/2024222551200002024gutkowski.lela@yahoo.com                                                                            
1Pryor          ERyan                   7845 Ruecker Garden                                         Earlyview           ND58841-527908/29/201501/23/2025224352200002024dschumm@yahoo.com                                                                                   
1Loy            QDurgan                 50355 Brandy Circles Suite 530                              West Desiree          81725     03/11/197102/19/2025231252200002024zrodriguez@gmail.com                                                                                
1Rosendo        BBechtelar              9413 Aydan Shores Suite 045                                 Port Huy            MO63534     05/04/196809/26/2024222351100002024malachi.will@connelly.com                                                                           
1Leo            BCrist                  4059 Madalynn Key                                           Sharonberg          CA91411-549201/27/201101/11/2025233121100002024xferry@ltd.biz                                                                                      
1Kadeem         CWeimann                7439 Brandyn Village Apt. 765                               New Fronia          ME03998     04/29/198103/11/2025243112200002024dswaniawski@yahoo.com                                                                               
2Edris          PLakin                  611 Dickens Passage Suite 026                               West Shelvahaven    OK35376-344409/21/200607/18/2024222232200002024tiana.wehner@goyette.com                                                                            
1Ott             Stamm                  P.O.BOX 1017                                                Ziemannberg         NY14094     04/16/199709/24/2024242332200002024xschaefer@o'reilly.com                                                                              
1Buddie         IO'Hara              I  745 Ward Groves                                             East Madysonbury    MO63837-112205/07/199007/01/2024231351200002024cassondra92@yahoo.com                                                                               
1Jerrad         LBins                   468 Lehner Pines                                            Sethside              98743     07/11/194403/30/2025223522200002024shad23@gmail.com                                                                                    
1Lacy            Bruen                  5068 Josiah Station                                         Normanmouth         WY83192     03/10/201807/13/2024223312200002024royce25@yahoo.com                                                                                   
1Lonie           Shields D'Amore        9630 Fisher Via Apt. 975                                    North Treverside    SC35368-769108/18/193310/05/2024222121100002024ritchie.louetta@hotmail.com                                                                         
1Regis          JGoyette                0825 Collier Skyway                                         Stromanmouth        NY04719     05/26/198309/20/2024221152100002024iridian73@cassin.com                                                                                
1Myron          RPagac               I  6492 Roby Curve Suite 944                                   South Benton        WY99886     09/11/201007/17/2024223121200002024nabbott@gmail.com                                                                                   
1Talan          OGoyette                5626 Sherlyn Spring                                         South Stanislaus    SC29113     11/19/199509/18/2024211111100002024cash.wilderman@llc.com                                                                              
1Leroy          NHeathcote           V  513 Daniel Mills Suite 090                                  Stoltenbergstad     CA90615     07/14/200407/28/2024211312200002024sturner@brakus.com                                                                                  
1Cesar          S                       85512 Emmerich Fort                                         Hoppestad           IA50193     05/21/193108/01/2024234111200002024bruen.kiefer@kertzmann.org                                                                          
1Ellison        NBeer                   2453 Estrella Islands                                       Miraclehaven        OH45126-712908/01/201301/03/2025222331200002024senger.nella@hotmail.com                                                                            
1Roscoe         KTreutel                0373 Haag Oval                                              Port Noeburgh       IN47008-271601/20/197310/14/2024231222100002024may35@haley.net                                                                                     
1Davian         FJohnston               7837 Beatty Stream                                          Thielton            CA93542     05/28/196501/24/2025211331100002024wbrakus@gmail.com                                                                                   
1Garret         NRau                 I  0012 Simonis Inlet Apt. 564                                 New Jarvisview        89609     12/24/201808/11/2024223122200002024zwelch@hermann.com                                                                                  
1Blaise         YWatsica                00910 Kameron Ville                                         West Fredaberg      WI54912     11/17/193507/11/2024233212200002024odin.stamm@hotmail.com                                                                              
1Mason          XRogahn                 0940 Schulist Expressway                                    Crooksstad          MD21019-506605/09/194412/05/2024242312100002024dach.angelica@hotmail.com                                                                           
1Matteo         AVolkman             I  06773 Ebenezer Garden                                       Tyreeshire          FL33066-658106/09/197907/23/2024214532200002024white.gabriel@haag.net                                                                              
1Phoenix         Wolf                   6698 Tim Fords Apt. 101                                     Leschfort           NY14757-178307/29/200012/29/2024213111200002024pouros.lily@botsford.com                                                                            
2Tilda          DCormier                06801 Clarisa Island Suite 925                              Port Janelle        NY10757-665506/01/197401/16/2025211251100002024efahey@hotmail.com                                                                                  
2Prudence       DHyatt                  19312 Borer Views Apt. 693                                  East Averie         IA52265     04/11/200809/21/2024213131100002024alpha74@hotmail.com                                                                                 
1Cap             Wuckert                161 Cummerata Lodge                                         Wrightmouth         OK73161     12/01/198108/05/2024243132100002024gmarvin@lehner.com                                                                                  
1Jonah          DEmard                  61705 Tanya Lakes                                           Lake Kalyn          OR20126     04/05/200402/12/2025212532100002024vruecker@kozey.com                                                                                  
2Taraji         KMayer                  83957 Nira Keys                                             Annhaven            AP96252     12/17/195310/14/2024232212200002024jking@yahoo.com                                                                                     
1Mason          GTreutel                289 Alzina Course Suite 075                                 Lottaport           AL36347     05/18/193602/20/2025211212100002024elfie.konopelski@jerde.com                                                                          
1Hallie         R                       121 Orpha Ridge                                             Kariton             CA94403     03/14/201712/05/2024223122100002024tameka.nicolas@bernier.com                                                                          
2Trilby         FLesch                  98310 Harris Mount Suite 793                                Lake Veta           VA24026     04/26/200110/24/2024223531100002024kelan.o'hara@gmail.com                                                                              
1Destin         OKoch                   378 Hansen Lane Suite 822                                   Mosciskifurt        NC27596-712611/27/194409/01/2024242132200002024brendon08@hotmail.com                                                                               
1Alvaro         LD                      045 Nonie Groves Suite 363                                  Hattiehaven         OH44231     02/22/201303/02/2025222512200002024bnolan@hotmail.com                                                                                  
1Ab             EFranecki            V  408 Lehner Lights                                           Reasonfort            69587-039807/01/196110/27/2024243251200002024geneva67@boyle.com                                                                                  
1Rube           ZArmstrong              5290 Zboncak Highway Apt. 905                               South Loranfort     PR00903-271103/22/200308/23/2024221332200002024zlind@ltd.com                                                                                       
1Ishmael        XLindgren               1278 Dortha Crossing                                        Christiansenberg    IA52378-736405/18/198101/22/2025231311100002024goodwin.loma@kassulke.biz                                                                           
1Atlas           Grimes                 955 Von Overpass Apt. 111                                   Juniorchester       VA24104-815412/07/198211/04/2024241151200002024mckenzie.loula@yahoo.com                                                                            
1Geo             Ankunding              4012 Wuckert Crescent Suite 766                             East Ema            WY82348     04/17/202403/22/2025243312200002024wehner.raul@hotmail.com                                                                             
1Braiden         West                   73274 Hickle Via                                            Bethachester        GU96901-388101/22/198601/24/2025212552200002024hermiston.glynn@thiel.com                                                                           
1Hiroshi        MKuhn                   5680 Idabelle Creek                                         Port Bonita         NV89578-799909/24/194502/22/2025242521100002024lempi56@hotmail.com                                                                                 
1Nelson         VHarber              I  4222 Liz Hills Apt. 131                                     Lake Laineyfurt     NC27462     01/12/199308/21/2024211332100002024hcarroll@hotmail.com                                                                                
1Luther         NFadel               V  90219 Bronson Forks                                         New Hideo           IN47263-920709/08/197709/29/2024221251200002024abbott.garth@hotmail.com                                                                            
1Oland          YAufderhar              531 Brittnie Square                                         New Cristin         KS67123-963004/28/195103/23/2025223122200002024aufderhar.fletcher@schumm.com                                                                       
1Wylie          SLeuschke               00552 Dickinson Spur                                        Lindville           IA50523-144112/22/197309/24/2024223121200002024hrolfson@gmail.com                                                                                  
1Jessie         IHessel                 5353 Kirlin Grove Apt. 093                                  West Noniechester   MN56669     11/23/196302/07/2025213322109002024cori.spencer@hotmail.com                                                                            
1Jaycob          Bruen                  489 Strosin Place Suite 065                                 Lake Marissa        CA92357     04/30/193203/20/2025243512200002024efren41@hotmail.com                                                                                 
1Devin          QSchmeler               8132 Bauch Drives Suite 278                                 New Dakota          OH43415-121212/31/199808/18/2024241112200002024vlockman@gmail.com                                                                                  
2Lura            Lemke                  59011 Valeria Port Suite 539                                Ofeliastad          AL36856-591808/14/200010/19/2024211531200002024deckow.philo@gmail.com                                                                              
1Rueben         MWunsch                 598 Sauer Keys                                              Port Zina           IL59505-701109/05/200807/31/2024243131200002024amclaughlin@inc.net                                                                                 
 Parker         XKeeling                3060 Ana Orchard Apt. 940                                   North Kristifort    ME04935     07/19/199311/30/2024234151100002024dilan60@yahoo.com                                                                                   
1Jaydon         FSchulist               099 Hirthe Flat Apt. 623                                    Blissland           MO65651-128307/31/199711/17/2024213131100002024yusuf22@gmail.com                                                                                   
1Doss           CParker                 47280 Bernier Union Apt. 474                                Lularborough        PA15051     12/31/196807/17/2024222252100002024ardyce69@yahoo.com                                                                                  
1Lenard          Hermann                23946 Rippin Shore Apt. 122                                 Croninchester       AL36958     01/15/198407/28/2024212322100002024koss.loraine@hotmail.com                                                                            
2Oneta          JHuel                   823 Kuhn Heights Suite 203                                  Veniemouth          PA16140-360810/14/201212/30/2024232231100002024lleffler@schumm.com                                                                                 
1Butch          NGusikowski             74790 Wunsch Bridge                                         New Iona            TX78408-191103/05/199403/09/2025224212200002024haag.kizzie@and.com                                                                                 
1Cameron        PSchamberger            011 Kling Mews Apt. 217                                     Wunschmouth         VT05271-503012/12/200811/23/2024243232200002024schoen.meredith@hotmail.com                                                                         
1Karson         EStroman Romaguera   I  961 Blick Ramp Apt. 985                                     Robelton            NY14909-291407/16/193912/26/2024222552200002024rudolph01@yahoo.com                                                                                 
2Zola           OWalker                 20275 Schmeler Passage                                      Port Javonteport    MI48982     05/06/198709/19/2024243321100002024bambi.yost@hotmail.com                                                                              
1Silver          Rempel                 217 White Radial                                            New Janeton         VT05292     04/10/194401/26/2025212512200002024thiel.colter@hotmail.com                                                                            
1Mario           O'Connell              9995 Robel Camp                                             South Lillardstad   CA90419     08/10/196407/06/2024222222200002024amarion.mann@plc.biz                                                                                
1Admiral        VStiedemann             1494 Batz Shoals                                            Monahanberg         NV89743-682307/14/194408/26/2024242552200002024osinski.demarcus@hotmail.com                                                                        
1Killian         Stamm                  54170 Botsford Lodge Suite 868                              New Tobi            TN37718-819503/13/201003/21/2025223222100002024pgrant@llc.com                                                                                      
1Collis         HRenner                 71809 Deckow Knolls                                         Wilfredoside        CO80163     11/16/200202/10/2025233521200002024bettie98@gmail.com                                                                                  
1Tillman        HKerluke                PO BOX 742                                                  Hyattstad           AL39324-250410/20/202308/06/2024223321100002024nyundt@yahoo.com                                                                                    
1Zigmund        PCollins                385 Jacobson Fords                                          Kilbackmouth        NY11245     02/17/194712/18/2024221152100002024ogutkowski@group.com                                                                                
1Aditya         GBosco               V  7157 Turner Mountain                                        Lednermouth         KS66565-849707/10/198410/15/2024234122200002024pconroy@hotmail.com                                                                                 
1Faustino       IOsinski                86005 Frankie Spring                                        East Roninhaven     VA23321-619912/25/199101/06/2025243312200002024abe57@bartoletti.com                                                                                
1Saverio        SSchinner               64414 Johnson Club Apt. 877                                 Murrayhaven         CA92320     06/15/196203/16/2025214222100002024vera.labadie@champlin.info                                                                          
1Waverly         Boyle                  6358 Hartwell Mills                                         O'Harahaven         SC29891-667209/24/199709/02/2024223321200002024hschulist@gmail.com                                                                                 
1Johney         RLittel                 4245 Versa Plain Apt. 951                                   North Kerryborough  OH44928     08/15/196809/17/2024214222200002024hschumm@gmail.com                                                                                   
1Ferd            Osinski             I  275 Jayde Row Apt. 588                                      Perlaborough        VA22248     05/05/193501/10/2025241152200002024gleason.susan@gmail.com                                                                             
1Othel          RDibbert                4731 Beer Points                                            Gerhardtshire       NY12874     03/05/193312/22/2024243112100002024phermann@plc.com                                                                                    
1Fredy          YPrice               I  9887 Franc Manors                                           South Rahsaanland   CT06046-579201/01/198901/09/2025234312200002024lubowitz.james@yahoo.com                                                                            
1Holland         Terry                  54145 Stoltenberg Park Suite 408                            South Isaiahhaven   NE68380     12/22/194707/27/2024224112200002024dheidenreich@yahoo.com                                                                              
1Jaylan         MWeber               I  234 Fisher Pike Apt. 091                                    Gastonhaven         AR72411-076701/02/194609/06/2024242121100002024dubuque.wong@borer.com                                                                              
2Opha           SAdams                  163 Zboncak Groves Suite 634                                North CorneliusshirePA17620     11/14/200401/03/2025221352200002024xcrist@hotmail.com                                                                                  
1Garnet         TWiza                   9313 Marks Place Apt. 169                                   Jaysonfurt          KY42514     08/12/198610/01/2024243122200002024adrain34@inc.com                                                                                    
2Carla           Schiller               758 Beatty Tunnel                                           Hoegerchester       MT95844-073412/22/194903/13/2025231252100002024elmina.gleichner@dietrich.com                                                                       
1Andreas         Kuvalis                1390 Desean Harbors Suite 678                               Gorczanyfurt        PA18664     12/14/198012/26/2024243221100002024uwitting@hotmail.com                                                                                
1Tallie         XPurdy               I  0179 Davis Trafficway                                       North Haydenhaven   AL36080     02/18/200210/17/2024224221100002024obuckridge@bergstrom.net                                                                            
1Adams           Kassulke               7524 Greenfelder Corner Suite 780                           Lake Lailaside      GA31095-491404/07/196408/23/2024241532200002024jschuppe@yahoo.com                                                                                  
1Holmes          Lakin                  3031 Marilyn Branch                                         North Dorthey       ND15101-348808/09/196709/10/2024242352100002024kupton@and.com                                                                                      
1Job             O'Reilly            V  115 Jacalyn Ramp                                            Port Donnie         TX78876-915212/25/200310/14/2024234551100002024arah98@nader.biz                                                                                    
1Illya          YLangosh             V  306 Xavier Radial                                           South Dimplebury    NC27415     03/17/194603/10/2025222232100002024anya94@johns.com                                                                                    
1Duncan         NKuhic                  758 Jaskolski Tunnel                                        North Tamibury      IN46161-789505/31/199501/28/2025221332200002024lwill@gmail.com                                                                                     
1Lary           NArmstrong              4391 Maggio Parkways Suite 159                              Douglasfurt         ME04647-573308/31/199702/14/2025243112200002024teresa.kub@runte.com                                                                                
1Otto            Gerhold                07694 Hershell Lights                                       West Reynoldsmouth  NJ50519-860107/05/194512/01/2024234351100002024vward@yundt.biz                                                                                     
2Giselle        BPfeffer                13073 Ayla River Apt. 345                                   West Caddie         MI04899-319102/02/194503/24/2025244251100002024merri.frami@yahoo.com                                                                               
1Eden           MBoyle               I  426 Lulie Freeway Suite 521                                 Brandonshire        GA34868-876408/09/201410/25/2024232121100002024zheaney@romaguera.net                                                                               
1Norval         AGreenfelder            9824 Jacobs Coves                                           Willischester       RI34860     06/08/198003/30/2025244231100002024roberts.dannie@schmeler.info                                                                        
1Claude         REmmerich            I  6779 Nikolaus Union Apt. 757                                Lake Arthor         TN37824-889309/23/200311/25/2024241112100002024purdy.helga@inc.com                                                                                 
1Hilliard        Quitzon                5466 Roll Shoals                                            South Kem           AR71939     08/18/195802/02/2025234112200002024unknown11@wiza.info                                                                                 
1Mathew         CF                      86699 Olson Alley Apt. 459                                  Greenfelderside     IL60062     10/21/200509/28/2024231222200002024yundt.monroe@lockman.com                                                                            
1Hoy             White                  65527 Calista Viaduct                                       Feilburgh           WY82716     01/02/198311/02/2024222252100002024inienow@gmail.com                                                                                   
1Desean          Grady                  564 Izetta Walk Apt. 438                                    East Erlineburgh    NC28202     10/21/201208/07/2024233521200002024edyth56@ltd.com                                                                                     
1Domingo        VNikolaus               729 Hardie Walk Apt. 483                                    Port Aden           GA39801-354901/14/197608/03/2024221522100002024mandie16@gmail.com                                                                                  
1Polk           PHerzog                 43365 Padberg Mill                                          New Eldridge        OK39955-843201/31/198208/16/2024213222200002024zhartmann@waelchi.biz                                                                               
1Marion         FHerzog                 4084 Millicent Stravenue                                    East Claudette      NV89511     01/09/200002/22/2025223211100002024margaretha09@hotmail.com                                                                            
1Dora           FReynolds               001 Donat Orchard                                           New Ada             MA02084-584104/09/201007/04/2024223531200002024marlie27@plc.net                                                                                    
1Arnav          CJaskolski              8066 Davian Rest                                            Hammesport          IL60002     07/13/201403/04/2025224312200002024iyana.hamill@yahoo.com                                                                              
2Elza           WPadberg                2624 Gilmer Harbor                                          Haneburgh           NE68608     12/06/196511/03/2024243312100002024zhagenes@gmail.com                                                                                  
1Welton          Labadie                1642 Eugene Trace Apt. 764                                  Roweville             90998     03/04/197309/10/2024244221200002024kaia.rowe@yahoo.com                                                                                 
1Francisco      XRogahn                 931 Zemlak Pike Apt. 093                                    South Averiestad    CA94219-764302/01/197708/14/2024242111100002024williamson.gertrude@hotmail.com                                                                     
1Chalmer        OQ                   I  9619 Herzog Spring                                          North Kyachester      86693     03/11/202202/18/2025212551200002024reynaldo.upton@group.org                                                                            
1Kolton         KCrona                  0738 Karrie Meadows Apt. 900                                South Elsaland      IL61051-288606/22/202001/12/2025231122100002024percy33@yahoo.com                                                                                   
1R              ILangworth              391 Jast Plain                                              Lake Berthaview     OR97596     06/11/198607/22/2024221322200002024jwill@gmail.com                                                                                     
1Johnny         KBogan                  4789 Feeney Crossroad Suite 443                             Adonismouth         AR71979     10/14/198007/21/2024213252100002024roxanne84@gmail.com                                                                                 
1Clement        NTreutel                092 Darrin Ways                                             Port Blanche        MN56227     12/04/197602/13/2025222352100002024davante40@gmail.com                                                                                 
1Teddy          RLubowitz               084 Zana Light Apt. 980                                     Lake Ferris         NJ07953-501306/17/195201/10/2025213222200002024elian80@ltd.com                                                                                     
1Thaddeus        Friesen                95164 King Circle                                           Mullerside          AA34011-287603/02/199408/11/2024232521100002024olson.cora@yahoo.com                                                                                
1Roderic         Kuphal              V  59598 Kelli Canyon Suite 567                                Simonisberg         KS67910-026401/12/202007/30/2024243331100002024patti.hahn@mohr.info                                                                                
1Willy           Kohler                 0904 Adriana Common Apt. 439                                Hansenview          WA98276     02/18/200810/11/2024244231100002024kalie.willms@yahoo.com                                                                              
1Oneal          BTromp               V  19624 Zulauf Dam Apt. 757                                   Birthaview          IA52212-283705/04/197702/22/2025213152100002024milburn35@yahoo.com                                                                                 
1Merrill        OWard                   6496 Borer Park                                             Alanzochester       SC92932-855310/31/202408/28/2024222521100002024mirna.dubuque@hotmail.com                                                                           
1Lucas          LSchmitt                945 Orra Valleys                                            West Lorne          KY40538-295411/19/193110/31/2024243111200002024anie.white@llc.net                                                                                  
1Russel          Friesen                76173 Jean Forks Suite 814                                  Presleyberg           55206     05/27/193912/12/2024243251200002024macejkovic.davie@yahoo.com                                                                          
1August          Rau                    272 Lora Brook                                              Gustfurt            MT59347     12/14/196512/14/2024231331100002024burnice.ziemann@littel.org                                                                          
1Mekhi           Schuppe             V  53959 Torp Plains                                           North Zoey          AZ86041-359312/20/199201/07/2025244312100002024pgusikowski@kemmer.com                                                                              
1Iva             Herman                 70349 DuBuque Lodge Suite 657                               Laurenceshire       KY40935     04/23/196108/26/2024223212200002024ottis.hilll@nolan.biz                                                                               
1Rudy           TFriesen                039 Bahringer Forks                                         New Benmouth        ID83372-214601/07/201710/04/2024223231200002024qpadberg@gmail.com                                                                                  
1Seymour        ZMcCullough             310 Ryne Junction Suite 578                                 Onieville           IN15163     10/10/202011/04/2024231352100002024labadie.georgine@gmail.com                                                                          
1Stephon         Braun               V  46616 Tatia Camp Suite 948                                  Reichertstad        OH08298-714310/19/197308/17/2024231352200002024lars38@gmail.com                                                                                    
1Richard        TWaelchi                9586 Blanda Trafficway                                      Lake Peytonfurt     NY12699-854310/23/201208/25/2024222531100002024bernier.jarret@and.com                                                                              
1Elmer          YFritsch                506 Sharee Forks Apt. 153                                   New Stuartview      NM75193-143410/16/195203/10/2025233221200002024forrest.kihn@buckridge.com                                                                          
1Crockett       VSchinner               486 Adlai Port                                              Leschfurt           NM88464-294004/18/200410/24/2024214152200002024helma83@schimmel.com                                                                                
1Kyson          HPurdy                  16079 Cyntha Fall Suite 744                                 Dillonton           MO64782     04/09/195210/18/2024214322200002024itillman@halvorson.com                                                                              
1Rutherford                             153 Oberbrunner Circles Apt. 508                            Bednarport            81975-788604/18/202407/13/2024223521100002024sharon20@gmail.com                                                                                  
1Emerson        FZieme                  81658 Bogisich Path                                         Bransonberg         NC27064     05/10/201608/30/2024231531200002024tturcotte@hotmail.com                                                                               
1Levin          OW                      02560 Nichole Isle Apt. 299                                 Keeblershire        LA71449     08/13/193502/15/2025222111100002024river68@berge.com                                                                                   
1Vinton         JPacocha                4904 Sipes Parks Suite 989                                  East Billiechester  WY79111     11/26/195901/24/2025222251200002024madelene.kuhlman@boehm.net                                                                          
1Rhett          JMohr                   226 Dwaine Junction                                         Darianstad          IA52393     02/04/194212/07/2024234232100002024kovacek.cash@hotmail.com                                                                            
1Clemence        O'Conner               4185 Brittani Canyon Apt. 828                               North Lonnieberg    GA12463-786212/29/201811/20/2024222221100002024rath.kasey@ltd.com                                                                                  
1Carmel         VKeebler                39963 Thad Parks                                            West Valentino      CA91924-724612/16/195907/26/2024232211100002024quigley.john@beier.com                                                                              
1Ole            EAbernathy           I  39601 Gabriel Route Suite 172                               Gordenmouth         ND58425-299312/20/200912/20/2024241351100002024arden68@hotmail.com                                                                                 
2Destinee        Johns                  305 Conn Street                                             Lake Kattieview     WY82087     09/05/196103/15/2025224131100002024ryan.shanon@gmail.com                                                                               
1Denton         BMiller                 587 Armond Creek                                            Lake Ova            AL36620-026205/19/195512/11/2024221252200002024amit10@schroeder.org                                                                                
1Lee            GStark                  71925 Salomon Lake                                          Bergstromberg       WA98663     09/12/200202/04/2025231211200002024agerlach@sanford.info                                                                               
1Redmond         Lueilwitz              7081 Gwyneth Divide                                         Powlowskiberg       NY10437     10/27/196201/05/2025211151100002024rosenbaum.effa@waelchi.com                                                                          
1Doll            Bins                   227 Ondricka Mall                                           Estieside           AR72127     06/29/196308/16/2024224232200002024kgusikowski@hotmail.com                                                                             
1Ferman         OKoss                   0518 Connelly Flat Suite 533                                Montanaton          AR72925-217906/20/194803/05/2025212232200002024rowland.little@hotmail.com                                                                          
1Trey           OHackett             V  503 O'Hara Fork Suite 380                                   Schuliststad        VA23315-825707/19/199112/23/2024214521100002024tyshawn.cartwright@shields.com                                                                      
1Hardy           Price                  39925 Kassidy Flats Suite 646                               Quigleymouth        TX75991     12/10/196512/18/2024232221200002024jward@little.com                                                                                    
1Seneca         GLangworth              5292 Tammy Pine Apt. 946                                    McCulloughchester   MA02365     07/16/197209/17/2024242521100002024xbrakus@runolfsson.com                                                                              
1Monty           Goyette                4978 Cormier Skyway                                         West Santosshire    TX79774-455006/02/201402/19/2025232331200002024walt74@yahoo.com                                                                                    
1Giancarlo      RUpton                  19107 Jacobs Rue Suite 964                                  Bednartown          FL34154     02/11/197401/09/2025232231200002024hwaelchi@wisoky.com                                                                                 
1Richard         Wyman                  13257 Langworth Greens                                      Lake Twyla          OK73938     07/10/193410/14/2024231222200002024collier.isidro@gmail.com                                                                            
1Kiley          MLynch                  5784 Mayert Forges Apt. 003                                 South Teagan        PA16902-889204/18/200111/04/2024214251200002024lidia24@llc.info                                                                                    
