1Kole           SLegros              DDS661 Blain Brook                                             Jackiebury          PA19482     02/04/194101/07/2025200000000002024kuhlman.erie@ullrich.net                                                                            
1Evertt         JGerlach Windler     Jr.7189 Deborrah Hill                                          Port Heavenside     IA52118-424209/30/195812/07/2024232112220002024katharine.wolf@welch.org                                                                            
2Silvia         ILedner                 419 Renard Forge Suite 583                                  Port Jamarion       AL35782-662604/01/193309/29/2024244552200002024wilkinson.ashlie@hotmail.com                                                                        
1Adan           EHayes                  01257 Germaine Cliffs                                       South Donavon       KY42486-840803/11/197901/23/2025242351200002024metz.lucky@hotmail.com                                                                              
1Garrick        YWalker              MD 955 Perla Meadows                                           North Matildaberg   OH43105-996503/09/200908/16/2024231121120002024taylor.oberbrunner@casper.com                                                                       
1Vinton         THansen                 452 Marks Gardens                                           West Mickieton      MS39504-455010/24/196603/05/2025212152100002024kaye.baumbach@rice.biz                                                                              
 Johan           Dibbert                6608 Rosa Cape Suite 104                                    East Norwoodbury    VA14126     04/02/198507/03/2024211551100002024dontae44@powlowski.info                                                                             
1Braylon         Schneider              9700 Doyle Square                                           South Iveyberg      OH43995     11/02/201912/17/2024234351220002024fannye.waters@considine.com                                                                         
1Hudson          Kovacek             Sr.1282 Beer Gardens Suite 314                                 Grantland             68223     11/04/193803/24/2025213522120002024estefani21@ritchie.biz                                                                              
1Clemente       LKlocko                 253 Okuneva Inlet Suite 455                                 Manleybury          NY11057     03/28/196411/13/2024241212120002024bruno74@hotmail.com                                                                                 
1Delmas         FLarson                 0953 Brandie Groves Suite 016                               West Vicyborough    AZ85228-059707/19/198101/10/2025212552200002024kimberley.miller@kihn.com                                                                           
1Edison         TTrantow             Jr.1964 Tromp Squares Suite 796                                Jamichester         NY12407     11/15/195703/17/2025243151120002024jwintheiser@murazik.com                                                                             
1Demetri        USchuster            Sr.5543 Michale River Apt. 738                                 West Hoke           TN95899-318811/10/200611/15/2024213332220002024schuyler.brekke@turner.net                                                                          
1Bart           XRatke-Hirthe        DDS077 Clytie Oval                                             West Giles            00048-090812/19/196901/05/2025211321200002024carroll.roseann@gmail.com                                                                           
1Burley         ILuettgen               683 Mueller Divide                                          South Edison        MS69183-141705/18/200408/25/2024212212220002024koch.yvonne@yahoo.com                                                                               
1Rayan           Walter                 58516 Carroll Turnpike Apt. 304                             Ratkeport           NC27081-369009/08/193009/21/2024221352220002024bullrich@gmail.com                                                                                  
1Ardell         HRunte               Sr.5257 Mosciski Garden                                        East Amare          IA51554-559502/24/201203/14/2025122221100002024albin71@goodwin.com                                                                                 
1Halley          McGlynn                38437 Mckenna Brooks Suite 014                              Port Junieburgh     IA52763-061207/25/194003/02/2025212552200002024lebsack.bell@yahoo.com                                                                              
2Marley         ADaniel                 12849 Holmes Extension Suite 240                            Erasmobury          WV15338     10/17/197412/02/2024241312220002024ABC@AOL.COOM                                                                                        
1Harding        GHowell              Jr.3466 Carter Track Suite 831                                 Kristamouth         NY14544     01/06/201910/08/2024234312120002024kathlyn.larson@group.com                                                                            
1Gorden          Ward                DDS724 Rosenbaum Via                                           Kingburgh           NM88124     03/20/199710/19/2024233212100002024vincenza.king@plc.net                                                                               
1Mauro           Stiedemann          MD 583 Will Freeway                                            Amadoberg           NC28803     03/05/196107/21/2024213332100002024jmarquardt@llc.com                                                                                  
1Marsh          SLang                   641 Adriene Route                                           Blockstad           PA15972     10/29/198407/26/2024232231100002024oberbrunner.luella@nienow.com                                                                       
1Wess           WPurdy                  1171 Daisey Estates                                         East Lonnie         CT06353-681908/16/196502/16/2025232211200002024umohr@yahoo.com                                                                                     
1Andrae         IWillms                 221 Lavonne Mews Apt. 897                                   Port Destanyborough PA16571-772412/28/201501/01/2025233552100002024lena.schowalter@llc.com                                                                             
1Male           DOrn                    881 Lucille Rue Suite 735                                   Billieburgh         PA17895-686801/16/193109/09/2024224522100002024cedric.franecki@hotmail.com                                                                         
1Dedrick        AReynolds               43683 Rowe Summit                                           Darrellstad         IL62727     07/26/197201/25/2025234122100002024heaney.graciela@gmail.com                                                                           
1Rafe           GMoore               Sr.PO BOX 35                                                   Pameliaberg         PA17845     07/05/197603/03/2025234222120002024shania.crona@hotmail.com                                                                            
1Robby          GErdman              DDS95514 Miller Parks Apt. 924                                 Huelsburgh          WY83008-063107/27/202410/17/2024233152200002024prosacco.dollie@and.com                                                                             
1Jan            AOsinski             DVM397 Brook Court                                             East Cameron        VA23677     11/29/199607/03/2024221131220002024georgianna.bruen@boyer.com                                                                          
2               JHessel                 564 Bode Place                                              Lake Admiralville   NY12015     04/19/199910/14/2024214232100002024ydaugherty@klein.biz                                                                                
1Benito          Mayert              Jr.2471 Wenzel Views                                           Port Stephani       TX75937     10/03/197701/09/2025233332120002024ivie47@plc.com                                                                                      
2Matie          PWalker                 8396 Kutch Divide Suite 456                                 East Geraldo          53362-565705/24/200007/24/2024221112120002024kuhic.domingo@hotmail.com                                                                           
1Maximiliano    QWhite               Sr.5044 Boyer Loop Apt. 447                                    New Alver           NY10782-816102/01/200311/22/2024221521100002024claudia67@olson.com                                                                                 
1Austyn          Fisher                 74431 Keila Parkway                                         South Dusty         DC88822-608306/16/193410/12/2024222212200002024merrilee67@yahoo.com                                                                                
2Phylis          Hessel                 0281 Olson Wall                                             New Aracelimouth    VA22051-828307/06/201409/11/2024241151220002024kautzer.flor@gmail.com                                                                              
1Aedan          HFay                 MD 39679 Winthrop Mount Apt. 856                               North Susana        SC29699     10/18/195008/15/2024243322200002024india.nikolaus@gmail.com                                                                            
1Dudley         ZJaskolski           PhD9504 Metz Lake                                              Cummingsberg        TX77510     03/19/194001/26/2025211521120002024elfreda.friesen@schumm.com                                                                          
1Ransom         QLabadie             Jr.49988 Grimes Views                                          South Liliebury     ME04193     10/01/201501/12/2025234151200002024larson.lon@cummerata.com                                                                            
1Jovan           Green               PhD915 Harlan Dale                                             West Janeychester     81949     10/04/198312/15/2024212522120002024daren58@auer.com                                                                                    
2Stacia          Graham                 3772 Mickey Port Suite 107                                  North Ewinport      PA16715     12/17/193210/27/2024244232100002024herminia14@gmail.com                                                                                
1Jobe           PDickinson           Sr.0309 Purdy Coves                                            Funktown            KY42339     05/22/200511/07/2024233212220002024coberbrunner@gmail.com                                                                              
2Tamra          ZPacocha                30637 Mariann Squares Suite 814                             Tyrekside           IL62734     12/14/199102/06/2025241322200002024quint83@and.com                                                                                     
1Hubbard        KReinger             DVM864 Rebecca Lake Apt. 000                                   Gerholdfort         SC52490     07/30/193007/15/2024211231220002024echo.kohler@yahoo.com                                                                               
1Henry          CTorp                DVM97347 Schiller Dale                                         South Russelland    CA96080     02/16/201612/05/2024233531120002024lehner.pallie@yahoo.com                                                                             
1Derl            Ryan                Sr.5842 Kuphal Square Apt. 652                                 New Miles           ID83468     12/17/197411/01/2024234251220002024vhand@group.com                                                                                     
1Doug           RJacobs-DuBuque      Sr.89954 Mueller Heights                                       East Keishaport     NY12899     05/14/198201/31/2025223222100002024thelma.lakin@yahoo.com                                                                              
1Camryn         CHermiston              634 Jules Bridge Suite 716                                  Cartwrighttown      AL35813-985806/27/199110/12/2024243322200002024xmitchell@gmail.com                                                                                 
1Osvaldo         Bartell                9085 Wisozk Freeway                                         South Jessiehaven   KS67161     05/02/196411/29/2024223511220002024hughes.boyer@plc.biz                                                                                
1Tripp          TLabadie             MD 22981 Eino Extension                                        Lake Hedwigland     RI94964-420101/27/200709/16/2024234222200002024pbauch@and.info                                                                                     
1Trevin          Eichmann               40200 Lehner Springs                                        Erdmanmouth         MT59558-023410/25/195501/01/2025232521120002024dparker@group.com                                                                                   
1Lamarcus        Raynor              Jr.3107 Schmitt Forks Suite 543                                Andontown           NY10322-555805/03/194608/11/2024222111200002024vannie35@yahoo.com                                                                                  
1Jeffery        XFadel               DDS5694 Stracke Station Apt. 721                               Shanahanbury        NC28835-494711/20/200801/16/2025231232220002024alisha.braun@bechtelar.com                                                                          
 Jaxton         JLebsack             Sr.600 Marks Spurs                                             North Karlie        TX79568-994503/25/197303/29/2025221522200002024hwaelchi@skiles.com                                                                                 
1Lowell         QAnderson               75982 Ami Freeway Suite 715                                 South Lenonmouth    GA30301-300009/12/193507/22/2024214322100002024ikiehn@gmail.com                                                                                    
1Kadin          YWalsh               DVM94809 Garret Rapids Apt. 802                                South Littie        CA93584     06/22/196103/25/2025222112100002024cormier.tobe@gmail.com                                                                              
1Reagan         MRyan                Jr.768 Jacobs Crossroad Apt. 441                               Jaceyshire          AE09685-076107/02/194012/16/2024223152200002024matteo10@yahoo.com                                                                                  
1T               Bode                   08692 Dibbert Square Suite 837                              Hilllfurt           CA95714-433011/21/194311/17/2024221111120002024dlarkin@group.com                                                                                   
1Laurance       KHilpert                228 Luettgen Meadow Apt. 391                                Port Amieport       CO81368     06/13/199510/15/2024243121200002024felisha.stanton@inc.com                                                                             
1Alessandro     THermiston              290 Simonis Unions                                          West Laurencetown   ID83621     08/22/194411/08/2024223112200002024streich.harper@mertz.org                                                                            
1Efrem          QDurgan              PhD344 Brisa Run Suite 918                                     Nedchester          MO65851-786810/24/197909/28/2024244511120002024francisquita43@gmail.com                                                                            
2Mayra          OWisoky                 88828 Mayer Rapid                                           Reichertville       AR71656-140809/01/201801/24/2025241231120002024ashly84@kozey.com                                                                                   
1Chad            Bernhard            PhD8002 Jerde Flat                                             New Fisher          IL62887-548004/10/198207/16/2024222211220002024vessie99@ltd.com                                                                                    
1Kristin        KParker                 851 Bailey Island                                           Lake Iverstad       PA16465-406309/16/200103/30/2025212551100002024linus81@ltd.com                                                                                     
1Deon            Kub                 MD 893 Wolf Garden Suite 497                                   Port Harden         PA17163-482609/13/198007/14/2024223552220002024helen02@yahoo.com                                                                                   
1Dylon           Glover              Jr.3321 Ullrich Key                                            Stephaniestad       AZ35348-544109/24/200112/16/2024214351120002024wisoky.ana@hotmail.com                                                                              
1Brant          TVonRueden              463 Catharine Cape Apt. 083                                 Lake Buel           IN78492-356504/15/196103/01/2025234332100002024mreichert@ltd.com                                                                                   
1Carlo          JSporer              Jr.8508 Bednar Via Apt. 240                                    Lake Jamel          WI54674-251207/20/196407/18/2024244151100002024mimi71@hotmail.com                                                                                  
1Elmo            Heller                 76333 Tallie Knolls                                         South Levystad      AZ86323-388304/22/199707/16/2024223331100002024lbayer@yahoo.com                                                                                    
1Stacey         IKutch                  2539 Kuhlman Gateway Apt. 752                               Lake Luceroborough  OK74120-840611/08/201211/15/2024244521220002024thorwald08@gmail.com                                                                                
1Gavyn          UWeissnat            MD 6415 Shade Mountains                                        New Albionside      RI02949-594308/26/197811/22/2024242211100002024fern.graham@gmail.com                                                                               
1Deacon          Welch               Jr.78190 Shanahan Plaza Apt. 070                               Hyattburgh          PA17976     03/26/198711/03/2024242321100002024maegan.johnston@yahoo.com                                                                           
1Oda            ASenger                 42321 Corrine Square Suite 763                              East Wm             MI49169     10/10/197510/02/2024212221220002024treutel.trevon@ltd.com                                                                              
1Jayvion        WTerry               Sr.4045 Prosper Freeway Suite 903                              Port Lucienport       00438     06/13/193610/27/2024213521220002024stokes.janiah@west.com                                                                              
1Kiara          HErdman              DVM571 Jeryl Underpass                                         Lillischester       NY13698-495708/30/202110/09/2024234322220002024vosinski@corkery.org                                                                                
1Perley          VonRueden              850 Kassulke Row Apt. 027                                   Hoppeburgh          GA31021-401404/24/198810/07/2024233531220002024qschuster@wunsch.org                                                                                
1Garland        IStamm                  5955 Steve Landing                                          Doyleshire          ME04354     06/05/196410/09/2024223532120002024tania96@yahoo.com                                                                                   
1Neil            O'Kon                  454 Lollie Underpass                                        North Sarrah        LA70658-729205/07/196402/23/2025242121220002024rau.nila@gmail.com                                                                                  
1Amerigo         Ward                   892 Heaney Unions                                           Glendonfort         WV25214     06/19/198811/27/2024224131220002024milas09@yahoo.com                                                                                   
1Dabney          Walter              MD P.O.BOX 1017                                                Joellaburgh         CA95803-333403/25/200301/31/2025212151120002024yesenia.kuhic@gmail.com                                                                             
1Thos            Schimmel            Jr.79932 Langosh Glens                                         Emaville            MS38958-535611/15/201301/25/2025211232120002024ira.conroy@gmail.com                                                                                
 Commodore       McClure             Sr.7504 Weber Street                                           Maxchester          IA50532     05/05/198709/12/2024223231200002024schmidt.evertt@ltd.com                                                                              
1Clifford       WVeum Lindgren       Sr.973 Frami Bypass Apt. 498                                   Botsfordland        VA23454     04/13/197111/06/2024242511120002024jacobi.albertine@denesik.com                                                                        
1Julious         Crist                  57394 Alvy Knoll                                            New Silviomouth     AL35590     09/19/194612/15/2024243151100002024terry.devontae@gutmann.info                                                                         
1Zion           DBartoletti             076 Ritchie Skyway                                          Simonville          KY40855-267308/13/196208/22/2024242522120002024lafayette.ullrich@gmail.com                                                                         
1Linton          Anderson               7680 Ondricka Hill                                          Hermanland            56844     08/26/195207/21/2024244521220002024annabel43@and.com                                                                                   
2Cinda          OBraun                  14839 Natalie Run                                           Lake Halestad       SD49962-320712/03/198107/28/2024224352120002024igreenfelder@kulas.com                                                                              
1Salvador       QMaggio              PhD230 Yundt Glens                                             West Charleenfort     51772     09/29/195010/18/2024224132120002024stoltenberg.tiara@hotmail.com                                                                       
1Vollie         HArmstrong           MD 5675 Hilma Haven Apt. 066                                   Gutmannland         WY82352     04/01/194007/14/2024214551120002024zboncak.paulette@llc.com                                                                            
1Lea            OToy                 PhDPOBOX 271                                                   Port Mamie          AR72961     02/09/201609/01/2024243511200002024nicolas.pratt@hotmail.com                                                                           
1Lamarcus       GSchulist Abbott     DDS300 Windler Crest                                           Loymouth            IA52872-131408/17/199911/01/2024214531220002024klowe@veum.com                                                                                      
1Merle          CChamplin            Sr.6725 Ferry Falls                                            Tabtown             KS67450-719509/18/201408/16/2024223312200002024roni67@yahoo.com                                                                                    
2Cheryle        VSchuppe                9190 Aubra Terrace Suite 726                                Leuschkefurt        MD21257     08/07/202411/27/2024242331220002024starr35@yahoo.com                                                                                   
1Elige          UHeaney              DVM45150 Roob Fall Suite 864                                   Lydellfort          WI54533     01/22/201607/22/2024231321200002024pkessler@torphy.com                                                                                 
1Kris           VWisoky                 09101 Patrica Crossing                                      North Bartstad      FL32186     02/21/198311/26/2024221112220002024max.lueilwitz@adams.com                                                                             
1Doctor         STremblay            Sr.782 Brittny View                                            Nicolasside         MO64438-014302/14/198610/24/2024244211220002024hansen.virgil@yahoo.com                                                                             
2Ida            IDooley                 203 Kennard Extensions                                      Lake Khiryview        34504-871109/19/194309/21/2024212122200002024olene83@hotmail.com                                                                                 
1Henderson      GJohns Armstrong        57836 Huel Island Apt. 470                                  Westchester         KY40771-224910/11/194507/12/2024244212120002024jame.mraz@hotmail.com                                                                               
1Mahlon         WWalter              Jr.P.O. BOX 211                                                Sierraland          NY10866     05/04/195610/19/2024224211200002024mueller.meryl@hotmail.com                                                                           
1Haden          ZKiehn                  505 Rodriguez Rapid Suite 794                               Blaineport          VT05484-764811/17/196803/13/2025242352100002024jaimee14@von.org                                                                                    
1Ancel          INienow              DVM74233 Prosacco Land                                         Brennachester       OR97710     09/19/201012/22/2024233321220002024ima.kilback@yahoo.com                                                                               
1Julio          VMurazik                951 Hamill Skyway Suite 220                                 New Hershellview    VA24658-877501/16/199311/24/2024243351100002024camren.paucek@yahoo.com                                                                             
1Jamin          PBarrows             DDS611 Davey Track                                             North Taylerton     OR97165-074709/01/199007/13/2024213252220002024eskiles@yahoo.com                                                                                   
1Jaimie          Koss                   5232 Bashirian Keys Suite 627                               North Adelialand    AZ85305-670504/12/199203/22/2025232251120002024arlene.cassin@gmail.com                                                                             
1Leander        RMurazik                4549 Becker Throughway                                      New Connieburgh     MO63755-752611/20/193503/05/2025232552120002024ilockman@hotmail.com                                                                                
1Vito           VWisozk              DVM0023 Lebsack Extension Apt. 362                             Port Gracelyn       PA15488-940406/24/197701/03/2025241311120002024corrina00@hoppe.com                                                                                 
1Rigoberto       Goodwin             Jr.140 Considine Centers                                       North Akirahaven    CA93906-792306/24/198612/26/2024244212220002024shaylee.kuphal@gmail.com                                                                            
 Memphis        TSchmitt             DVM21016 Jacalyn Ridges                                        East Samantha       IA51036-653605/23/199812/29/2024231252200002024vince66@gmail.com                                                                                   
1Orrin          XRowe                   33664 Flatley Greens                                        West Jaden            51732-204004/21/197111/18/2024211221220002024chadrick.balistreri@bahringer.com                                                                   
1Peyton         ISchroeder           DDS08466 Claude Wells Suite 512                                Gulgowskiton        NJ08799-533107/01/195210/10/2024212252120002024annabell61@paucek.info                                                                              
 Ewart          XMcClure             DDS39924 Ondricka Plaza                                        Alannachester       ND58631     05/05/200809/07/2024232521120002024walker.albion@hotmail.com                                                                           
1Primus          Goldner             MD 07328 Elsie Gardens Apt. 785                                New Allena          AR72422     08/10/193307/03/2024213512120002024stonewall33@yahoo.com                                                                               
1Burt-Talon     FFrami                  60300 Kreiger Brook                                         Lake Alissatown     NY13086-177607/29/195910/06/2024232132200002024morissette.rutherford@lubowitz.com                                                                  
1Roe            VReichel             DDS9820 Boyer Locks Suite 361                                  Jennettehaven       NC28176-089507/10/201211/08/2024243312120002024hkessler@gmail.com                                                                                  
1Alford          Medhurst            DDS67779 Stan Prairie Suite 462                                South Otto          NY13658-849703/09/194810/26/2024223221100002024nelia.bernier@romaguera.com                                                                         
1Ibrahim        YOkuneva Mitchell    Jr.538 Rosenbaum Flat Suite 557                                North Adenville     HI59592     09/09/200309/28/2024231132220002024vern.kihn@group.com                                                                                 
1Erastus-Garry  BChamplin               96279 Lurena Ramp Suite 976                                 Tabhaven            WA32317-845310/04/198012/04/2024231212220002024rilla.cummings@hotmail.com                                                                          
1Oland          DGibson                 68115 Frami Manors                                          Isaiastown          NJ08190-075103/04/195807/24/2024241532200002024walker.abraham@gmail.com                                                                            
2Ashley          Batz                   3323 Rosario Coves Suite 240                                Gerholdberg         FL32622-653405/10/195402/25/2025244332220002024tiffany.wehner@and.com                                                                              
1Dallin          Bailey Armstrong       85088 Ivory Point                                           New Baylie          NC27072     11/16/197302/24/2025244122120002024vern.mccullough@gmail.com                                                                           
1Ora            YLehner                 53804 Philomena Lake                                        South Selena        PA19529-620001/25/197701/01/2025212211220002024montana.schimmel@kutch.net                                                                          
1Lindy          EHeidenreich            645 Fritsch Views Suite 557                                 Boycebury           MO65005-032707/26/198501/19/2025243551120002024joana50@hotmail.com                                                                                 
1Lavern          Bernier                91670 Juan Avenue                                           New Jaseberg        VA22099-163504/12/196803/07/2025222212220002024raymond05@jerde.com                                                                                 
1Jamey          JVeum                MD 485 Tremblay Walk                                           Hettingerport       WI53570-835409/29/196411/04/2024221531200002024crist.chelsea@yahoo.com                                                                             
1Minor          STreutel             DDS74205 Kihn Spur                                             New Yorkville       MN40498     03/29/193107/07/2024222252220002024mgrady@botsford.com                                                                                 
1Tegan          RSwaniawski          MD 95359 Daugherty Overpass                                    Lake Carsen         NY11375-894302/26/201512/03/2024212211200002024justyn.von@yahoo.com                                                                                
1Adelard        LRuecker             Jr.33918 Adrianne Well Apt. 812                                South Brandyn       HI96885-866410/17/196711/13/2024242212220002024rowe.cordaro@hotmail.com                                                                            
1Carson         DMurphy                 34001 Considine Freeway                                     Iceytown              69737     01/20/198310/21/2024241212220002024ccormier@yahoo.com                                                                                  
1Lucas          HBashirian           DVM302 Olive Square                                            East Laceyside      KY42768-560306/03/193803/09/2025244131220002024odus44@bailey.com                                                                                   
1Jair            Stiedemann             44961 Braulio Pass Apt. 969                                 New Madysonfort     MN56394-714202/21/201602/08/2025232522220002024letitia.leuschke@hotmail.com                                                                        
1Severt         BMedhurst            Sr.1162 Schmitt Garden Apt. 633                                South Robbie        AR71704     12/23/196512/08/2024232111200002024dmcglynn@hotmail.com                                                                                
1Guss           OLuettgen            DVM199 Fannye Hill Apt. 994                                    Port Geraldo        CA99414-330503/09/193203/07/2025244222100002024adrianne44@waelchi.com                                                                              
1Clemens         Waelchi Wilkinson   MD 44816 Mychal Shoal                                          Murphychester       VA24117     07/05/202002/13/2025231131100002024janna.nader@hotmail.com                                                                             
1Bethel         QWiegand             DVM39877 Haley Camp                                            Johnsshire          MN46649     12/08/194403/07/2025212511120002024earlie.harber@gmail.com                                                                             
1Olof            Haley               MD 427 Pranav Ways                                             Yolandachester      KY93354-752301/13/200003/25/2025224221220002024tiffani87@yahoo.com                                                                                 
1Jobe           QAnkunding           MD 462 Lakin Mills Apt. 340                                    South Virashire     IL62736     06/01/193110/30/2024222521200002024larkin.welton@gmail.com                                                                             
1Ted            DBode                Jr.38385 Olin Drive Apt. 308                                   West Sarita         NM87711     07/18/199701/18/2025212312100002024farrell.kunta@yahoo.com                                                                             
2Ebba           KBergstrom              10310 Shields Corners                                       Gaylordton          KY40867     12/24/196608/13/2024232511200002024heathcote.cornelius@roob.info                                                                       
1Aaron          SVeum                PhD7777 Shade Dale                                             Denesikchester      PA18040     11/09/197511/17/2024231531220002024analia.hermiston@hotmail.com                                                                        
1Irl             Cassin              DDS75436 Johns Ports                                           Padbergfort         PA16830     10/30/193709/02/2024241511220002024mohammad03@gmail.com                                                                                
1Murphy         KChamplin            DDS029 Gerhold Crossroad Suite 922                             Port Yorkstad       CO80001-596606/11/198808/28/2024211352100002024hansen.marlie@hotmail.com                                                                           
1Waino           Kirlin              DVM3784 Rogahn Valley Apt. 916                                 Marleyton           AL35289     01/14/197503/02/2025212512120002024raynor.amiyah@gmail.com                                                                             
1Brandyn        IHickle                 614 Morissette Harbors Suite 524                            North Tristan       MA02685-529410/10/200910/27/2024234322120002024ukris@hotmail.com                                                                                   
1Ernie          ZBalistreri             5106 Sherlyn Vista                                          Gutkowskiside       CO80116-468510/13/196802/15/2025234322120002024hane.kyleigh@gmail.com                                                                              
1Clemence       ALeuschke            PhD32286 Weimann Lakes Suite 598                               East Armandfort     NE67872     07/07/196612/05/2024231232120002024magdalene.trantow@yahoo.com                                                                         
1Dameon         GDenesik                085 Stroman Cape Suite 999                                  Port Peyton         NY12731     07/03/195708/11/2024211252220002024kenji52@yahoo.com                                                                                   
1Gorge           Anderson               540 Linn Stream                                             North Green         KY40173     07/18/193908/25/2024243231100002024benny.conn@howell.net                                                                               
1Isom           UKing                   369 Lemke Ranch                                             West Braydenton     DC20075-888601/17/193509/14/2024233352200002024durrell37@denesik.net                                                                               
1Shaun           Macejkovic             539 Tosha Track                                             North Forest        VT05093-780402/16/200410/02/2024212521200002024walker.keyon@gmail.com                                                                              
1Erland         CKuvalis                7024 Mallory Knolls                                         Brayanside          MA01310-268304/18/197710/07/2024114112220002024stoltenberg.hjalmer@schimmel.com                                                                    
1Cephus         MGaylord             DVM8191 Rutherford Radial Suite 272                            South Annettashire  WY81331     11/23/194202/07/2025234521120002024goyette.deon@osinski.com                                                                            
2Elissa         SBosco                  1531 Conley Park                                            South Santinaside   PA15314-790501/20/200402/04/2025244332200002024jarrod96@zemlak.com                                                                                 
1Needham         Abbott                 07117 Reichert Fords                                        Lake Foybury        IL61338-700711/28/194211/20/2024222522200002024powlowski.grisel@gmail.com                                                                          
1Jaimie         RBernhard            DVM8021 Gislason Mill Suite 303                                Lake Gageton        MD21819-369601/01/194803/30/2025232352200002024dorian.rice@koch.com                                                                                
1Lance          JSchmitt Strosin        111 Roxane Knolls                                           East Mont           TX60138-497012/18/201010/14/2024233121100002024waters.elba@kshlerin.com                                                                            
1Johnathan       Glover              MD 4728 Reichel Tunnel                                         Nathenbury          MA02759     04/25/199511/09/2024211552120002024wpouros@yahoo.com                                                                                   
1Ryder          HRogahn              Sr.62176 Walter Knoll                                          Lebsacktown         WA99033-602605/14/197210/20/2024232311100002024o'connell.marilee@yahoo.com                                                                         
1Brandy         YKris                Jr.61634 Tara Row                                              East Marcellusbury  AR71847     04/23/202403/10/2025231512100002024gorczany.sanford@gmail.com                                                                          
1Alonso         HCartwright             9949 Jammie Pass Apt. 660                                   South Epifanioport  WA99124-879112/10/194501/26/2025223152220002024gianna.schaden@gmail.com                                                                            
1Judson         RNader               Sr.32049 Blaze Ways Suite 521                                  Lindton             KY42055     10/05/197710/06/2024234151100002024legros.ailene@littel.biz                                                                            
1Wardell        EHettinger              39910 Ward Viaduct                                          New Rylee           VA23789     03/31/201708/22/2024213531220002024delbert.dach@hotmail.com                                                                            
2Antonette      UHodkiewicz             4594 McCullough Springs                                     West Moisesville    IA52004-553606/17/198108/09/2024212151100002024cosmo19@yost.com                                                                                    
1Almus          YEmmerich            Sr.0364 Ann Mountain Apt. 033                                  Albafort            NJ95966     07/16/202401/13/2025241212220002024bednar.freddy@gutmann.com                                                                           
1Kareem         OBogan                  048 Tollie Garden                                           Kozeyville          IL62334-379804/17/201909/11/2024241121120002024watsica.moshe@hotmail.com                                                                           
1Guthrie        EJacobs              Sr.40928 Jolene Oval                                           Hallieside            65991-813911/16/195201/17/2025241322220002024krissy.mcdermott@klocko.biz                                                                         
1Elliott        FBauch               Sr.068 Purdy Forks                                             Port Liz            CA93337     11/11/198412/10/2024234221120002024larae48@moore.com                                                                                   
2Ricki          UWill                   915 Beatty Junctions Apt. 830                               New Emileefurt        89683     09/01/199703/03/2025244222220002024shanell.baumbach@yahoo.com                                                                          
1Agustus         Mann                PhD32373 Kertzmann Underpass                                   Port Jeremiahstad   MO64884-354707/13/195610/19/2024211152220002024watt.lueilwitz@group.biz                                                                            
1Jamarion        Strosin             MD 783 Arlin Terrace Apt. 042                                  New Amelie          PA18517     05/25/195703/20/2025232521100002024bednar.analia@hotmail.com                                                                           
1Owens          HWiegand                499 Gladis Road Suite 986                                   Lake Elmore         OR97717-867006/08/195811/09/2024224222220002024wmitchell@gmail.com                                                                                 
1Jeffry          Rosenbaum           Jr.62911 Gislason Creek                                        South Raelyn        IL60355-061109/01/198309/23/2024212321200002024grady.erlene@gmail.com                                                                              
2Lera           THeathcote              45284 Ivory Dam                                             Mabellechester      VA24117     06/24/201010/02/2024233151100002024imani.howe@yahoo.com                                                                                
1Connie          Bogisich               09901 Olson Vista Apt. 084                                  Bertiehaven         NY14333-621104/27/196512/31/2024243251100002024hope72@sanford.com                                                                                  
1Charlie        TBode                Jr.21596 Ankunding Walk                                        Shondaview          MD21080     10/14/200901/15/2025214231100002024kokuneva@group.com                                                                                  
2Violette        Ebert                  228 Balistreri Corner                                       Trantowside         ND88061     04/21/200102/18/2025243512120002024garnet26@hotmail.com                                                                                
1Oscar          RWeimann                140 Keebler Neck Suite 719                                  Aprilchester        CO80155     04/30/198912/23/2024222211220002024kerluke.arleen@llc.com                                                                              
1Anfernee       OMuller              PhD8242 Connie Radial                                          D'Amorehaven        KY40794-221412/22/193609/01/2024212331100002024nhaag@yahoo.com                                                                                     
1Brock           Runte                  5298 Sawayn Course                                          Kuphaltown          VA22849-200612/23/197601/24/2025232252120002024roseanna45@botsford.com                                                                             
1Haiden          Lindgren            DDS0197 Heaney Mountains Suite 111                             North Denice        IA50395-793310/20/199208/20/2024234232220002024lashawn55@hotmail.com                                                                               
1Devontae       TBrakus                 676 Jerde Lake Suite 880                                    West Darcychester   CA94386-443503/20/198403/07/2025213352220002024drodriguez@gmail.com                                                                                
1Salvador        Jacobi              Jr.53180 Schamberger Tunnel Suite 066                          Katerinachester     RI02855-375705/08/196809/16/2024211121120002024hessel.jensen@hotmail.com                                                                           
1Elzy           CAufderhar              929 Alicia Mount                                            West Mikalah        ID83575     08/02/194507/05/2024244222100002024do'reilly@gmail.com                                                                                 
1Brett           Zboncak             DVM73018 Ezequiel Stravenue                                    Venicehaven         NJ07682-069907/21/196610/01/2024213321200002024corwin29@yahoo.com                                                                                  
2Caydence        Braun                  43186 McDermott Highway Suite 566                           Binsshire           KY42773-652803/04/201403/20/2025243532120002024rcorwin@keebler.org                                                                                 
 Hadley         GLehner Casper          14023 Durgan Wells Suite 621                                Gladyceville        MT59816-007411/14/197711/20/2024232332220002024dariana80@hotmail.com                                                                               
2Icy            NLarson                 52925 Kertzmann Run Suite 615                               Maybellstad         KY42704     03/07/194301/20/2025244252100002024pouros.jaylen@hotmail.com                                                                           
1Pranav         WLeuschke               17778 Ridge Plaza Apt. 606                                  Lake Odeliachester  IN47751-519701/28/193407/19/2024221231100002024arnulfo85@gmail.com                                                                                 
1Thompson       EShields             DVM150 Carmel Meadow                                           West Martaville     WA99186     03/24/198401/01/2025241511120002024johnson.vicente@hotmail.com                                                                         
1Eliot          MReinger             MD 38599 Butch Port Suite 293                                  Langworthstad       IN46353-765111/15/199301/28/2025232151120002024ransom30@hotmail.com                                                                                
1Kelley         IWeissnat            MD 8254 Kuhic Vista Suite 260                                  Doyleburgh          IN05913-690905/25/195302/07/2025211522120002024terri20@inc.com                                                                                     
1Hudson         KHermiston              250 Hessel Alley                                            East Alyssa         KY40148     09/16/196210/28/2024214151220002024crona.michell@hotmail.com                                                                           
1Javen          HRaynor              PhD3222 Hettinger Inlet                                        Angusburgh            69453     09/03/200002/18/2025213132200002024hilbert.roberts@padberg.com                                                                         
2Lavona         HCrist                  341 Ward Forges                                             Lake Domenico       MS39364-714403/30/200312/12/2024243511220002024pat50@gibson.info                                                                                   
1Gust           RSchneider              54813 Bartoletti Ways Suite 217                             New Mialand         WI53210     11/17/197311/04/2024232511120002024bettyjane34@yahoo.com                                                                               
1Jed             Shields                2739 Hamill Overpass Suite 439                              Lake Serenityberg   NY10563     04/16/198701/07/2025141512100002024shea.fritsch@kling.com                                                                              
1Juston          Larkin              DDS74560 Ullrich Run                                           Schuppechester      TX76406-615305/12/200702/08/2025234551120002024lott32@price.com                                                                                    
1Raul            Olson                  876 Flora Rue                                               West Anabeltown     IA52799     11/11/196702/11/2025221212100002024nbruen@yahoo.com                                                                                    
 Pryor           Powlowski              PSC 6829, Box 8986                                          APO                   64336     03/16/193309/18/2024214352220002024kennith.jenkins@hotmail.com                                                                         
1Autry          QBarton              DDS538 Cicely Mount Apt. 064                                   Port Orma             51820-130009/12/197101/27/2025214231120002024prosacco.unknown@hotmail.com                                                                        
1Shade          FPadberg                601 Juliette Village Apt. 381                               Bartolettiview      LA71357-266009/25/196409/20/2024211521220002024kunze.mortimer@brown.com                                                                            
1Rollie         RPurdy               MD 90282 Ballard Path Suite 212                                Bonnietown          TX77575     02/15/200612/06/2024242351220002024naomi.hagenes@group.com                                                                             
1Horton         EBerge                  2972 Powlowski Glens Suite 740                              South Brittahaven   FL33627-354408/08/199701/14/2025223331120002024jarred.brakus@wilderman.org                                                                         
1Yaakov         ZSteuber                43490 Catrina Pines                                         Merwinland          ND58835     02/19/197012/19/2024243311100002024dwight.zulauf@plc.info                                                                              
1Griffin        ZKuhn                MD 15071 Terry Plaza Apt. 569                                  Lavernmouth           21306-546011/02/193808/18/2024242512120002024qferry@yahoo.com                                                                                    
1Pedro          HGoldner             PhD95717 Lular Underpass                                       Einarton              69467     04/20/196008/12/2024221331100002024schinner.pamella@yahoo.com                                                                          
1Thurlow        NAuer                Sr.9284 Jamaal Brook Suite 277                                 Port Odessa         VA24007-530506/11/200910/26/2024243331200002024sherri.gislason@sauer.net                                                                           
1Claudie        JPouros                 26195 Langworth Glens Suite 061                             East Miatown        WV26872     12/12/201008/18/2024213212120002024coty74@rogahn.com                                                                                   
1Ted            ZSchneider              1401 Tatsuo Well Apt. 324                                   Leslyburgh          IN47581-763807/09/195609/11/2024214222100002024alissa.kutch@yahoo.com                                                                              
2Hazelle         Jenkins                86568 Moen Stream Suite 974                                 Dawneborough        IA50769-796405/16/198203/05/2025234351120002024shaina60@rutherford.com                                                                             
1Braydon        AHeaney              PhD864 Scot Lake                                               New Daroldberg      CA93408     07/24/194512/21/2024234322100002024qnader@yahoo.com                                                                                    
2Cassondra      UKerluke                44242 Ryan Neck Suite 718                                   Pagacview           NY13236-290301/03/196301/05/2025214311220002024bednar.medora@borer.com                                                                             
1Westley        WLemke                  195 Emeline Ford Apt. 384                                   North Myashire      PA16086-279608/13/196307/15/2024222231200002024wthompson@hotmail.com                                                                               
1Ralph           Dickinson           Jr.66898 Loyce Radial                                          Schillerstad        IL61533-159803/29/196502/02/2025232122220002024asha83@weber.info                                                                                   
1Nikhil         QKihn                PhD672 Dolph Bypass                                            West Adriane          89290-580306/08/193801/18/2025213311220002024green30@hotmail.com                                                                                 
1Watson         JCrooks              DVM15123 Kshlerin Knolls Apt. 541                              Myrandastad         IN27146     11/18/194308/22/2024232211200002024kayden.balistreri@gmail.com                                                                         
1Ian             Luettgen            DVM698 Sonia Route                                             South Taj           GA30154-850903/19/195808/08/2024234131220002024pfadel@gmail.com                                                                                    
1Joey           GEichmann            MD 34931 Wing Skyway Suite 408                                 Lubertaport         OK74355-430904/28/198203/07/2025234532200002024milburn.fahey@quitzon.com                                                                           
1Ferman          Lindgren            DDS91795 Arietta Locks Suite 871                               South Zenohaven     NY10720-577504/05/194508/06/2024244552100002024ember.botsford@hotmail.com                                                                          
1Shawn          DKozey               Jr.851 Yundt Parks                                             Port Geroldton      CA93993-990512/24/195402/02/2025242152200002024pstokes@llc.com                                                                                     
1Guthrie        PReinger                51144 Reichert Bypass Suite 217                             Mariloufurt           98784     10/21/195007/02/2024231332200002024collins.lelia@marvin.org                                                                            
1Hays           OWeimann                794 Gaylord Point                                           West Isadorechester OK73146-736511/06/200112/16/2024234532100002024gorge59@inc.biz                                                                                     
1Braylon        FAuer                   08576 Willms Walks                                          South Letha         NE68937-516208/27/198610/01/2024233151120002024hintz.clabe@yahoo.com                                                                               
1Percy          VDicki.              DVM792 Mertz Path Apt. 485                                     Port Jailynview       65968     04/09/194307/31/2024213251220002024shirley94@and.info                                                                                  
1Claude          Glover                 4310 Etha Fields                                            Lake Ahborough        81771     03/02/197208/06/2024231121100002024roel73@mraz.com                                                                                     
1Branden         Bergnaum            PhD21628 Dorian Parkway                                        Ortizville          IL61597     12/18/194103/25/2025241321220002024milburn91@corwin.info                                                                               
